{
  "_format": "hh-sol-artifact-1",
  "contractName": "Skirmishers",
  "sourceName": "contracts/Skirmishers.sol",
  "abi": [
    {
      "inputs": [
        {
          "internalType": "string[]",
          "name": "_skirmisherNames",
          "type": "string[]"
        },
        {
          "internalType": "string[]",
          "name": "_skirmisherImageURIs",
          "type": "string[]"
        },
        {
          "internalType": "uint256[]",
          "name": "_skirmisherHp",
          "type": "uint256[]"
        },
        {
          "internalType": "uint256[]",
          "name": "_skirmisherDmg",
          "type": "uint256[]"
        },
        {
          "internalType": "string",
          "name": "_bossName",
          "type": "string"
        },
        {
          "internalType": "string",
          "name": "_bossImageURI",
          "type": "string"
        },
        {
          "internalType": "uint256",
          "name": "_bossHp",
          "type": "uint256"
        },
        {
          "internalType": "uint256",
          "name": "_bossDamage",
          "type": "uint256"
        }
      ],
      "stateMutability": "nonpayable",
      "type": "constructor"
    },
    {
      "anonymous": false,
      "inputs": [
        {
          "indexed": true,
          "internalType": "address",
          "name": "owner",
          "type": "address"
        },
        {
          "indexed": true,
          "internalType": "address",
          "name": "approved",
          "type": "address"
        },
        {
          "indexed": true,
          "internalType": "uint256",
          "name": "tokenId",
          "type": "uint256"
        }
      ],
      "name": "Approval",
      "type": "event"
    },
    {
      "anonymous": false,
      "inputs": [
        {
          "indexed": true,
          "internalType": "address",
          "name": "owner",
          "type": "address"
        },
        {
          "indexed": true,
          "internalType": "address",
          "name": "operator",
          "type": "address"
        },
        {
          "indexed": false,
          "internalType": "bool",
          "name": "approved",
          "type": "bool"
        }
      ],
      "name": "ApprovalForAll",
      "type": "event"
    },
    {
      "anonymous": false,
      "inputs": [
        {
          "indexed": false,
          "internalType": "uint256",
          "name": "newPlayerHp",
          "type": "uint256"
        },
        {
          "indexed": false,
          "internalType": "uint256",
          "name": "newEnemyHp",
          "type": "uint256"
        }
      ],
      "name": "AttackCompleted",
      "type": "event"
    },
    {
      "anonymous": false,
      "inputs": [
        {
          "indexed": false,
          "internalType": "address",
          "name": "sender",
          "type": "address"
        },
        {
          "indexed": false,
          "internalType": "uint256",
          "name": "newSkirmisherID",
          "type": "uint256"
        },
        {
          "indexed": false,
          "internalType": "uint256",
          "name": "SkirmisherType",
          "type": "uint256"
        }
      ],
      "name": "SkirmisherNFTMinted",
      "type": "event"
    },
    {
      "anonymous": false,
      "inputs": [
        {
          "indexed": true,
          "internalType": "address",
          "name": "from",
          "type": "address"
        },
        {
          "indexed": true,
          "internalType": "address",
          "name": "to",
          "type": "address"
        },
        {
          "indexed": true,
          "internalType": "uint256",
          "name": "tokenId",
          "type": "uint256"
        }
      ],
      "name": "Transfer",
      "type": "event"
    },
    {
      "inputs": [
        {
          "internalType": "uint256",
          "name": "",
          "type": "uint256"
        }
      ],
      "name": "ID2Attributes",
      "outputs": [
        {
          "internalType": "uint256",
          "name": "skirmisherType",
          "type": "uint256"
        },
        {
          "internalType": "string",
          "name": "name",
          "type": "string"
        },
        {
          "internalType": "string",
          "name": "imageURI",
          "type": "string"
        },
        {
          "internalType": "uint256",
          "name": "hp",
          "type": "uint256"
        },
        {
          "internalType": "uint256",
          "name": "maxHp",
          "type": "uint256"
        },
        {
          "internalType": "uint256",
          "name": "damage",
          "type": "uint256"
        }
      ],
      "stateMutability": "view",
      "type": "function"
    },
    {
      "inputs": [
        {
          "internalType": "address",
          "name": "to",
          "type": "address"
        },
        {
          "internalType": "uint256",
          "name": "tokenId",
          "type": "uint256"
        }
      ],
      "name": "approve",
      "outputs": [],
      "stateMutability": "nonpayable",
      "type": "function"
    },
    {
      "inputs": [],
      "name": "attackBoss",
      "outputs": [],
      "stateMutability": "nonpayable",
      "type": "function"
    },
    {
      "inputs": [
        {
          "internalType": "address",
          "name": "owner",
          "type": "address"
        }
      ],
      "name": "balanceOf",
      "outputs": [
        {
          "internalType": "uint256",
          "name": "",
          "type": "uint256"
        }
      ],
      "stateMutability": "view",
      "type": "function"
    },
    {
      "inputs": [],
      "name": "boss",
      "outputs": [
        {
          "internalType": "string",
          "name": "name",
          "type": "string"
        },
        {
          "internalType": "string",
          "name": "imageURI",
          "type": "string"
        },
        {
          "internalType": "uint256",
          "name": "hp",
          "type": "uint256"
        },
        {
          "internalType": "uint256",
          "name": "maxHp",
          "type": "uint256"
        },
        {
          "internalType": "uint256",
          "name": "damage",
          "type": "uint256"
        }
      ],
      "stateMutability": "view",
      "type": "function"
    },
    {
      "inputs": [],
      "name": "checkPresenceNFT",
      "outputs": [
        {
          "components": [
            {
              "internalType": "uint256",
              "name": "skirmisherType",
              "type": "uint256"
            },
            {
              "internalType": "string",
              "name": "name",
              "type": "string"
            },
            {
              "internalType": "string",
              "name": "imageURI",
              "type": "string"
            },
            {
              "internalType": "uint256",
              "name": "hp",
              "type": "uint256"
            },
            {
              "internalType": "uint256",
              "name": "maxHp",
              "type": "uint256"
            },
            {
              "internalType": "uint256",
              "name": "damage",
              "type": "uint256"
            }
          ],
          "internalType": "struct Skirmishers.SkirmisherAttributes",
          "name": "",
          "type": "tuple"
        }
      ],
      "stateMutability": "view",
      "type": "function"
    },
    {
      "inputs": [
        {
          "internalType": "uint256",
          "name": "_skirmisherType",
          "type": "uint256"
        }
      ],
      "name": "createSkirmisher",
      "outputs": [],
      "stateMutability": "nonpayable",
      "type": "function"
    },
    {
      "inputs": [
        {
          "internalType": "uint256",
          "name": "tokenId",
          "type": "uint256"
        }
      ],
      "name": "getApproved",
      "outputs": [
        {
          "internalType": "address",
          "name": "",
          "type": "address"
        }
      ],
      "stateMutability": "view",
      "type": "function"
    },
    {
      "inputs": [],
      "name": "getBaseSkirmishers",
      "outputs": [
        {
          "components": [
            {
              "internalType": "uint256",
              "name": "skirmisherType",
              "type": "uint256"
            },
            {
              "internalType": "string",
              "name": "name",
              "type": "string"
            },
            {
              "internalType": "string",
              "name": "imageURI",
              "type": "string"
            },
            {
              "internalType": "uint256",
              "name": "hp",
              "type": "uint256"
            },
            {
              "internalType": "uint256",
              "name": "maxHp",
              "type": "uint256"
            },
            {
              "internalType": "uint256",
              "name": "damage",
              "type": "uint256"
            }
          ],
          "internalType": "struct Skirmishers.SkirmisherAttributes[]",
          "name": "",
          "type": "tuple[]"
        }
      ],
      "stateMutability": "view",
      "type": "function"
    },
    {
      "inputs": [],
      "name": "getBoss",
      "outputs": [
        {
          "components": [
            {
              "internalType": "string",
              "name": "name",
              "type": "string"
            },
            {
              "internalType": "string",
              "name": "imageURI",
              "type": "string"
            },
            {
              "internalType": "uint256",
              "name": "hp",
              "type": "uint256"
            },
            {
              "internalType": "uint256",
              "name": "maxHp",
              "type": "uint256"
            },
            {
              "internalType": "uint256",
              "name": "damage",
              "type": "uint256"
            }
          ],
          "internalType": "struct Skirmishers.EnemyVariant",
          "name": "",
          "type": "tuple"
        }
      ],
      "stateMutability": "view",
      "type": "function"
    },
    {
      "inputs": [
        {
          "internalType": "address",
          "name": "owner",
          "type": "address"
        },
        {
          "internalType": "address",
          "name": "operator",
          "type": "address"
        }
      ],
      "name": "isApprovedForAll",
      "outputs": [
        {
          "internalType": "bool",
          "name": "",
          "type": "bool"
        }
      ],
      "stateMutability": "view",
      "type": "function"
    },
    {
      "inputs": [],
      "name": "name",
      "outputs": [
        {
          "internalType": "string",
          "name": "",
          "type": "string"
        }
      ],
      "stateMutability": "view",
      "type": "function"
    },
    {
      "inputs": [
        {
          "internalType": "address",
          "name": "",
          "type": "address"
        }
      ],
      "name": "owner2Skirmisher",
      "outputs": [
        {
          "internalType": "uint256",
          "name": "",
          "type": "uint256"
        }
      ],
      "stateMutability": "view",
      "type": "function"
    },
    {
      "inputs": [
        {
          "internalType": "uint256",
          "name": "tokenId",
          "type": "uint256"
        }
      ],
      "name": "ownerOf",
      "outputs": [
        {
          "internalType": "address",
          "name": "",
          "type": "address"
        }
      ],
      "stateMutability": "view",
      "type": "function"
    },
    {
      "inputs": [
        {
          "internalType": "address",
          "name": "from",
          "type": "address"
        },
        {
          "internalType": "address",
          "name": "to",
          "type": "address"
        },
        {
          "internalType": "uint256",
          "name": "tokenId",
          "type": "uint256"
        }
      ],
      "name": "safeTransferFrom",
      "outputs": [],
      "stateMutability": "nonpayable",
      "type": "function"
    },
    {
      "inputs": [
        {
          "internalType": "address",
          "name": "from",
          "type": "address"
        },
        {
          "internalType": "address",
          "name": "to",
          "type": "address"
        },
        {
          "internalType": "uint256",
          "name": "tokenId",
          "type": "uint256"
        },
        {
          "internalType": "bytes",
          "name": "_data",
          "type": "bytes"
        }
      ],
      "name": "safeTransferFrom",
      "outputs": [],
      "stateMutability": "nonpayable",
      "type": "function"
    },
    {
      "inputs": [
        {
          "internalType": "address",
          "name": "operator",
          "type": "address"
        },
        {
          "internalType": "bool",
          "name": "approved",
          "type": "bool"
        }
      ],
      "name": "setApprovalForAll",
      "outputs": [],
      "stateMutability": "nonpayable",
      "type": "function"
    },
    {
      "inputs": [
        {
          "internalType": "bytes4",
          "name": "interfaceId",
          "type": "bytes4"
        }
      ],
      "name": "supportsInterface",
      "outputs": [
        {
          "internalType": "bool",
          "name": "",
          "type": "bool"
        }
      ],
      "stateMutability": "view",
      "type": "function"
    },
    {
      "inputs": [],
      "name": "symbol",
      "outputs": [
        {
          "internalType": "string",
          "name": "",
          "type": "string"
        }
      ],
      "stateMutability": "view",
      "type": "function"
    },
    {
      "inputs": [
        {
          "internalType": "uint256",
          "name": "_tokenId",
          "type": "uint256"
        }
      ],
      "name": "tokenURI",
      "outputs": [
        {
          "internalType": "string",
          "name": "",
          "type": "string"
        }
      ],
      "stateMutability": "view",
      "type": "function"
    },
    {
      "inputs": [
        {
          "internalType": "address",
          "name": "from",
          "type": "address"
        },
        {
          "internalType": "address",
          "name": "to",
          "type": "address"
        },
        {
          "internalType": "uint256",
          "name": "tokenId",
          "type": "uint256"
        }
      ],
      "name": "transferFrom",
      "outputs": [],
      "stateMutability": "nonpayable",
      "type": "function"
    }
  ],
  "bytecode": "0x60806040523480156200001157600080fd5b50604051620055be380380620055be833981810160405281019062000037919062000a59565b6040518060400160405280600b81526020017f536b69726d6973686572730000000000000000000000000000000000000000008152506040518060400160405280600481526020017f4d495348000000000000000000000000000000000000000000000000000000008152508160009080519060200190620000bb929190620007ec565b508060019080519060200190620000d4929190620007ec565b5050506040518060a0016040528085815260200184815260200183815260200183815260200182815250600860008201518160000190805190602001906200011e929190620007ec565b5060208201518160010190805190602001906200013d929190620007ec565b50604082015181600201556060820151816003015560808201518160040155905050620002c06040518060600160405280602c815260200162005592602c9139600860000180546200018f9062000d87565b80601f0160208091040260200160405190810160405280929190818152602001828054620001bd9062000d87565b80156200020e5780601f10620001e2576101008083540402835291602001916200020e565b820191906000526020600020905b815481529060010190602001808311620001f057829003601f168201915b5050505050600860020154600860010180546200022b9062000d87565b80601f0160208091040260200160405190810160405280929190818152602001828054620002599062000d87565b8015620002aa5780601f106200027e57610100808354040283529160200191620002aa565b820191906000526020600020905b8154815290600101906020018083116200028c57829003601f168201915b50505050506200070160201b62001b6b1760201c565b60005b8851811015620006db5760076040518060c001604052808381526020018b84815181106200031a577f4e487b7100000000000000000000000000000000000000000000000000000000600052603260045260246000fd5b602002602001015181526020018a848151811062000361577f4e487b7100000000000000000000000000000000000000000000000000000000600052603260045260246000fd5b60200260200101518152602001898481518110620003a8577f4e487b7100000000000000000000000000000000000000000000000000000000600052603260045260246000fd5b60200260200101518152602001898481518110620003ef577f4e487b7100000000000000000000000000000000000000000000000000000000600052603260045260246000fd5b6020026020010151815260200188848151811062000436577f4e487b7100000000000000000000000000000000000000000000000000000000600052603260045260246000fd5b6020026020010151815250908060018154018082558091505060019003906000526020600020906006020160009091909190915060008201518160000155602082015181600101908051906020019062000492929190620007ec565b506040820151816002019080519060200190620004b1929190620007ec565b50606082015181600301556080820151816004015560a0820151816005015550506000600782815481106200050f577f4e487b7100000000000000000000000000000000000000000000000000000000600052603260045260246000fd5b90600052602060002090600602016040518060c001604052908160008201548152602001600182018054620005449062000d87565b80601f0160208091040260200160405190810160405280929190818152602001828054620005729062000d87565b8015620005c35780601f106200059757610100808354040283529160200191620005c3565b820191906000526020600020905b815481529060010190602001808311620005a557829003601f168201915b50505050508152602001600282018054620005de9062000d87565b80601f01602080910402602001604051908101604052809291908181526020018280546200060c9062000d87565b80156200065d5780601f1062000631576101008083540402835291602001916200065d565b820191906000526020600020905b8154815290600101906020018083116200063f57829003601f168201915b5050505050815260200160038201548152602001600482015481526020016005820154815250509050620006c460405180606001604052806032815260200162005560603291398260200151836060015184604001516200070160201b62001b6b1760201c565b508080620006d29062000dbd565b915050620002c3565b50620006f36006620007ad60201b62001c0d1760201c565b505050505050505062000ec3565b620007a7848484846040516024016200071e949392919062000c04565b6040516020818303038152906040527f8d142cdd000000000000000000000000000000000000000000000000000000007bffffffffffffffffffffffffffffffffffffffffffffffffffffffff19166020820180517bffffffffffffffffffffffffffffffffffffffffffffffffffffffff8381831617835250505050620007c360201b60201c565b50505050565b6001816000016000828254019250508190555050565b60008151905060006a636f6e736f6c652e6c6f679050602083016000808483855afa5050505050565b828054620007fa9062000d87565b90600052602060002090601f0160209004810192826200081e57600085556200086a565b82601f106200083957805160ff19168380011785556200086a565b828001600101855582156200086a579182015b82811115620008695782518255916020019190600101906200084c565b5b5090506200087991906200087d565b5090565b5b80821115620008985760008160009055506001016200087e565b5090565b6000620008b3620008ad8462000c9a565b62000c66565b9050808382526020820190508260005b85811015620008f75781518501620008dc888262000a15565b845260208401935060208301925050600181019050620008c3565b5050509392505050565b600062000918620009128462000cc9565b62000c66565b905080838252602082019050828560208602820111156200093857600080fd5b60005b858110156200096c578162000951888262000a42565b8452602084019350602083019250506001810190506200093b565b5050509392505050565b60006200098d620009878462000cf8565b62000c66565b905082815260208101848484011115620009a657600080fd5b620009b384828562000d51565b509392505050565b600082601f830112620009cd57600080fd5b8151620009df8482602086016200089c565b91505092915050565b600082601f830112620009fa57600080fd5b815162000a0c84826020860162000901565b91505092915050565b600082601f83011262000a2757600080fd5b815162000a3984826020860162000976565b91505092915050565b60008151905062000a538162000ea9565b92915050565b600080600080600080600080610100898b03121562000a7757600080fd5b600089015167ffffffffffffffff81111562000a9257600080fd5b62000aa08b828c01620009bb565b985050602089015167ffffffffffffffff81111562000abe57600080fd5b62000acc8b828c01620009bb565b975050604089015167ffffffffffffffff81111562000aea57600080fd5b62000af88b828c01620009e8565b965050606089015167ffffffffffffffff81111562000b1657600080fd5b62000b248b828c01620009e8565b955050608089015167ffffffffffffffff81111562000b4257600080fd5b62000b508b828c0162000a15565b94505060a089015167ffffffffffffffff81111562000b6e57600080fd5b62000b7c8b828c0162000a15565b93505060c062000b8f8b828c0162000a42565b92505060e062000ba28b828c0162000a42565b9150509295985092959890939650565b600062000bbf8262000d2b565b62000bcb818562000d36565b935062000bdd81856020860162000d51565b62000be88162000e98565b840191505092915050565b62000bfe8162000d47565b82525050565b6000608082019050818103600083015262000c20818762000bb2565b9050818103602083015262000c36818662000bb2565b905062000c47604083018562000bf3565b818103606083015262000c5b818462000bb2565b905095945050505050565b6000604051905081810181811067ffffffffffffffff8211171562000c905762000c8f62000e69565b5b8060405250919050565b600067ffffffffffffffff82111562000cb85762000cb762000e69565b5b602082029050602081019050919050565b600067ffffffffffffffff82111562000ce75762000ce662000e69565b5b602082029050602081019050919050565b600067ffffffffffffffff82111562000d165762000d1562000e69565b5b601f19601f8301169050602081019050919050565b600081519050919050565b600082825260208201905092915050565b6000819050919050565b60005b8381101562000d7157808201518184015260208101905062000d54565b8381111562000d81576000848401525b50505050565b6000600282049050600182168062000da057607f821691505b6020821081141562000db75762000db662000e3a565b5b50919050565b600062000dca8262000d47565b91507fffffffffffffffffffffffffffffffffffffffffffffffffffffffffffffffff82141562000e005762000dff62000e0b565b5b600182019050919050565b7f4e487b7100000000000000000000000000000000000000000000000000000000600052601160045260246000fd5b7f4e487b7100000000000000000000000000000000000000000000000000000000600052602260045260246000fd5b7f4e487b7100000000000000000000000000000000000000000000000000000000600052604160045260246000fd5b6000601f19601f8301169050919050565b62000eb48162000d47565b811462000ec057600080fd5b50565b61468d8062000ed36000396000f3fe608060405234801561001057600080fd5b50600436106101375760003560e01c806395d89b41116100b8578063c772af391161007c578063c772af391461034c578063c87b56dd1461036e578063d4f24c5b1461039e578063e985e9c5146103a8578063f82aa5ca146103d8578063facb47fe1461040d57610137565b806395d89b41146102ba578063968bfca6146102d8578063a22cb465146102f6578063b88d4fde14610312578063c76d9e7d1461032e57610137565b80632459f224116100ff5780632459f224146101f257806342842e0e146102225780636352211e1461023e57806370a082311461026e578063717cd1591461029e57610137565b806301ffc9a71461013c57806306fdde031461016c578063081812fc1461018a578063095ea7b3146101ba57806323b872dd146101d6575b600080fd5b61015660048036038101906101519190612f16565b61042b565b6040516101639190613c76565b60405180910390f35b61017461050d565b6040516101819190613c91565b60405180910390f35b6101a4600480360381019061019f9190612f68565b61059f565b6040516101b19190613bb6565b60405180910390f35b6101d460048036038101906101cf9190612eda565b610624565b005b6101f060048036038101906101eb9190612dd4565b61073c565b005b61020c60048036038101906102079190612d6f565b61079c565b6040516102199190614023565b60405180910390f35b61023c60048036038101906102379190612dd4565b6107b4565b005b61025860048036038101906102539190612f68565b6107d4565b6040516102659190613bb6565b60405180910390f35b61028860048036038101906102839190612d6f565b610886565b6040516102959190614023565b60405180910390f35b6102b860048036038101906102b39190612f68565b61093e565b005b6102c2610d32565b6040516102cf9190613c91565b60405180910390f35b6102e0610dc4565b6040516102ed9190614001565b60405180910390f35b610310600480360381019061030b9190612e9e565b610f9c565b005b61032c60048036038101906103279190612e23565b610fb2565b005b610336611014565b6040516103439190613fdf565b60405180910390f35b610354611170565b604051610365959493929190613d60565b60405180910390f35b61038860048036038101906103839190612f68565b6112a4565b6040516103959190613c91565b60405180910390f35b6103a66114bf565b005b6103c260048036038101906103bd9190612d98565b6117e0565b6040516103cf9190613c76565b60405180910390f35b6103f260048036038101906103ed9190612f68565b611874565b6040516104049695949392919061403e565b60405180910390f35b6104156119c0565b6040516104229190613c54565b60405180910390f35b60007f80ac58cd000000000000000000000000000000000000000000000000000000007bffffffffffffffffffffffffffffffffffffffffffffffffffffffff1916827bffffffffffffffffffffffffffffffffffffffffffffffffffffffff191614806104f657507f5b5e139f000000000000000000000000000000000000000000000000000000007bffffffffffffffffffffffffffffffffffffffffffffffffffffffff1916827bffffffffffffffffffffffffffffffffffffffffffffffffffffffff1916145b80610506575061050582611c23565b5b9050919050565b60606000805461051c9061438f565b80601f01602080910402602001604051908101604052809291908181526020018280546105489061438f565b80156105955780601f1061056a57610100808354040283529160200191610595565b820191906000526020600020905b81548152906001019060200180831161057857829003601f168201915b5050505050905090565b60006105aa82611c8d565b6105e9576040517f08c379a00000000000000000000000000000000000000000000000000000000081526004016105e090613f3f565b60405180910390fd5b6004600083815260200190815260200160002060009054906101000a900473ffffffffffffffffffffffffffffffffffffffff169050919050565b600061062f826107d4565b90508073ffffffffffffffffffffffffffffffffffffffff168373ffffffffffffffffffffffffffffffffffffffff1614156106a0576040517f08c379a000000000000000000000000000000000000000000000000000000000815260040161069790613f7f565b60405180910390fd5b8073ffffffffffffffffffffffffffffffffffffffff166106bf611cf9565b73ffffffffffffffffffffffffffffffffffffffff1614806106ee57506106ed816106e8611cf9565b6117e0565b5b61072d576040517f08c379a000000000000000000000000000000000000000000000000000000000815260040161072490613e9f565b60405180910390fd5b6107378383611d01565b505050565b61074d610747611cf9565b82611dba565b61078c576040517f08c379a000000000000000000000000000000000000000000000000000000000815260040161078390613f9f565b60405180910390fd5b610797838383611e98565b505050565b600e6020528060005260406000206000915090505481565b6107cf83838360405180602001604052806000815250610fb2565b505050565b6000806002600084815260200190815260200160002060009054906101000a900473ffffffffffffffffffffffffffffffffffffffff169050600073ffffffffffffffffffffffffffffffffffffffff168173ffffffffffffffffffffffffffffffffffffffff16141561087d576040517f08c379a000000000000000000000000000000000000000000000000000000000815260040161087490613edf565b60405180910390fd5b80915050919050565b60008073ffffffffffffffffffffffffffffffffffffffff168273ffffffffffffffffffffffffffffffffffffffff1614156108f7576040517f08c379a00000000000000000000000000000000000000000000000000000000081526004016108ee90613ebf565b60405180910390fd5b600360008373ffffffffffffffffffffffffffffffffffffffff1673ffffffffffffffffffffffffffffffffffffffff168152602001908152602001600020549050919050565b600061094a60066120f4565b90506109563382612102565b6040518060c00160405280838152602001600784815481106109a1577f4e487b7100000000000000000000000000000000000000000000000000000000600052603260045260246000fd5b906000526020600020906006020160010180546109bd9061438f565b80601f01602080910402602001604051908101604052809291908181526020018280546109e99061438f565b8015610a365780601f10610a0b57610100808354040283529160200191610a36565b820191906000526020600020905b815481529060010190602001808311610a1957829003601f168201915b5050505050815260200160078481548110610a7a577f4e487b7100000000000000000000000000000000000000000000000000000000600052603260045260246000fd5b90600052602060002090600602016002018054610a969061438f565b80601f0160208091040260200160405190810160405280929190818152602001828054610ac29061438f565b8015610b0f5780601f10610ae457610100808354040283529160200191610b0f565b820191906000526020600020905b815481529060010190602001808311610af257829003601f168201915b5050505050815260200160078481548110610b53577f4e487b7100000000000000000000000000000000000000000000000000000000600052603260045260246000fd5b906000526020600020906006020160030154815260200160078481548110610ba4577f4e487b7100000000000000000000000000000000000000000000000000000000600052603260045260246000fd5b906000526020600020906006020160040154815260200160078481548110610bf5577f4e487b7100000000000000000000000000000000000000000000000000000000600052603260045260246000fd5b906000526020600020906006020160050154815250600d6000838152602001908152602001600020600082015181600001556020820151816001019080519060200190610c43929190612b96565b506040820151816002019080519060200190610c60929190612b96565b50606082015181600301556080820151816004015560a08201518160050155905050610ca56040518060600160405280602d81526020016145df602d91398284612120565b80600e60003373ffffffffffffffffffffffffffffffffffffffff1673ffffffffffffffffffffffffffffffffffffffff16815260200190815260200160002081905550610cf36006611c0d565b7fa247490c9e6f583f6b8f3b9c33b2d91116c2c750ec015c4b5e87da48032619cd338284604051610d2693929190613c1d565b60405180910390a15050565b606060018054610d419061438f565b80601f0160208091040260200160405190810160405280929190818152602001828054610d6d9061438f565b8015610dba5780601f10610d8f57610100808354040283529160200191610dba565b820191906000526020600020905b815481529060010190602001808311610d9d57829003601f168201915b5050505050905090565b610dcc612c1c565b6000600e60003373ffffffffffffffffffffffffffffffffffffffff1673ffffffffffffffffffffffffffffffffffffffff1681526020019081526020016000205490506000811115610f8b57600d60008281526020019081526020016000206040518060c001604052908160008201548152602001600182018054610e519061438f565b80601f0160208091040260200160405190810160405280929190818152602001828054610e7d9061438f565b8015610eca5780601f10610e9f57610100808354040283529160200191610eca565b820191906000526020600020905b815481529060010190602001808311610ead57829003601f168201915b50505050508152602001600282018054610ee39061438f565b80601f0160208091040260200160405190810160405280929190818152602001828054610f0f9061438f565b8015610f5c5780601f10610f3157610100808354040283529160200191610f5c565b820191906000526020600020905b815481529060010190602001808311610f3f57829003601f168201915b505050505081526020016003820154815260200160048201548152602001600582015481525050915050610f99565b610f93612c1c565b80925050505b90565b610fae610fa7611cf9565b83836121bf565b5050565b610fc3610fbd611cf9565b83611dba565b611002576040517f08c379a0000000000000000000000000000000000000000000000000000000008152600401610ff990613f9f565b60405180910390fd5b61100e8484848461232c565b50505050565b61101c612c52565b60086040518060a00160405290816000820180546110399061438f565b80601f01602080910402602001604051908101604052809291908181526020018280546110659061438f565b80156110b25780601f10611087576101008083540402835291602001916110b2565b820191906000526020600020905b81548152906001019060200180831161109557829003601f168201915b505050505081526020016001820180546110cb9061438f565b80601f01602080910402602001604051908101604052809291908181526020018280546110f79061438f565b80156111445780601f1061111957610100808354040283529160200191611144565b820191906000526020600020905b81548152906001019060200180831161112757829003601f168201915b505050505081526020016002820154815260200160038201548152602001600482015481525050905090565b60088060000180546111819061438f565b80601f01602080910402602001604051908101604052809291908181526020018280546111ad9061438f565b80156111fa5780601f106111cf576101008083540402835291602001916111fa565b820191906000526020600020905b8154815290600101906020018083116111dd57829003601f168201915b50505050509080600101805461120f9061438f565b80601f016020809104026020016040519081016040528092919081815260200182805461123b9061438f565b80156112885780601f1061125d57610100808354040283529160200191611288565b820191906000526020600020905b81548152906001019060200180831161126b57829003601f168201915b5050505050908060020154908060030154908060040154905085565b60606000600d60008481526020019081526020016000206040518060c0016040529081600082015481526020016001820180546112e09061438f565b80601f016020809104026020016040519081016040528092919081815260200182805461130c9061438f565b80156113595780601f1061132e57610100808354040283529160200191611359565b820191906000526020600020905b81548152906001019060200180831161133c57829003601f168201915b505050505081526020016002820180546113729061438f565b80601f016020809104026020016040519081016040528092919081815260200182805461139e9061438f565b80156113eb5780601f106113c0576101008083540402835291602001916113eb565b820191906000526020600020905b8154815290600101906020018083116113ce57829003601f168201915b505050505081526020016003820154815260200160048201548152602001600582015481525050905060006114238260600151612388565b905060006114348360800151612388565b905060006114458460a00151612388565b9050600061148b856020015161145a89612388565b876040015187878760405160200161147796959493929190613aef565b604051602081830303815290604052612535565b90506000816040516020016114a09190613b94565b6040516020818303038152906040529050809650505050505050919050565b600060086002015411611507576040517f08c379a00000000000000000000000000000000000000000000000000000000081526004016114fe90613fbf565b60405180910390fd5b6000600e60003373ffffffffffffffffffffffffffffffffffffffff1673ffffffffffffffffffffffffffffffffffffffff1681526020019081526020016000205490506000600d6000838152602001908152602001600020905060008160030154116115a9576040517f08c379a00000000000000000000000000000000000000000000000000000000081526004016115a090613eff565b60405180910390fd5b806005015460086002015410156115ca5760006008600201819055506115e9565b80600501546008600201546115df91906142a5565b6008600201819055505b600860040154816003015410156116095760008160030181905550611627565b600860040154816003015461161e91906142a5565b81600301819055505b6116df6040518060800160405280604c815260200161460c604c91398260010180546116529061438f565b80601f016020809104026020016040519081016040528092919081815260200182805461167e9061438f565b80156116cb5780601f106116a0576101008083540402835291602001916116cb565b820191906000526020600020905b8154815290600101906020018083116116ae57829003601f168201915b5050505050836003015484600501546126f3565b61179a6040518060600160405280603a8152602001614565603a91396008600001805461170b9061438f565b80601f01602080910402602001604051908101604052809291908181526020018280546117379061438f565b80156117845780601f1061175957610100808354040283529160200191611784565b820191906000526020600020905b81548152906001019060200180831161176757829003601f168201915b50505050506008600201546008600401546126f3565b7f24596b044f9390b6f54a6470706bb6795f0a3a4b6d148ca80241481a5f60938c81600301546008600201546040516117d49291906140ad565b60405180910390a15050565b6000600560008473ffffffffffffffffffffffffffffffffffffffff1673ffffffffffffffffffffffffffffffffffffffff16815260200190815260200160002060008373ffffffffffffffffffffffffffffffffffffffff1673ffffffffffffffffffffffffffffffffffffffff16815260200190815260200160002060009054906101000a900460ff16905092915050565b600d60205280600052604060002060009150905080600001549080600101805461189d9061438f565b80601f01602080910402602001604051908101604052809291908181526020018280546118c99061438f565b80156119165780601f106118eb57610100808354040283529160200191611916565b820191906000526020600020905b8154815290600101906020018083116118f957829003601f168201915b50505050509080600201805461192b9061438f565b80601f01602080910402602001604051908101604052809291908181526020018280546119579061438f565b80156119a45780601f10611979576101008083540402835291602001916119a4565b820191906000526020600020905b81548152906001019060200180831161198757829003601f168201915b5050505050908060030154908060040154908060050154905086565b60606007805480602002602001604051908101604052809291908181526020016000905b82821015611b6257838290600052602060002090600602016040518060c001604052908160008201548152602001600182018054611a219061438f565b80601f0160208091040260200160405190810160405280929190818152602001828054611a4d9061438f565b8015611a9a5780601f10611a6f57610100808354040283529160200191611a9a565b820191906000526020600020905b815481529060010190602001808311611a7d57829003601f168201915b50505050508152602001600282018054611ab39061438f565b80601f0160208091040260200160405190810160405280929190818152602001828054611adf9061438f565b8015611b2c5780601f10611b0157610100808354040283529160200191611b2c565b820191906000526020600020905b815481529060010190602001808311611b0f57829003601f168201915b505050505081526020016003820154815260200160048201548152602001600582015481525050815260200190600101906119e4565b50505050905090565b611c0784848484604051602401611b859493929190613cb3565b6040516020818303038152906040527f8d142cdd000000000000000000000000000000000000000000000000000000007bffffffffffffffffffffffffffffffffffffffffffffffffffffffff19166020820180517bffffffffffffffffffffffffffffffffffffffffffffffffffffffff8381831617835250505050612795565b50505050565b6001816000016000828254019250508190555050565b60007f01ffc9a7000000000000000000000000000000000000000000000000000000007bffffffffffffffffffffffffffffffffffffffffffffffffffffffff1916827bffffffffffffffffffffffffffffffffffffffffffffffffffffffff1916149050919050565b60008073ffffffffffffffffffffffffffffffffffffffff166002600084815260200190815260200160002060009054906101000a900473ffffffffffffffffffffffffffffffffffffffff1673ffffffffffffffffffffffffffffffffffffffff1614159050919050565b600033905090565b816004600083815260200190815260200160002060006101000a81548173ffffffffffffffffffffffffffffffffffffffff021916908373ffffffffffffffffffffffffffffffffffffffff160217905550808273ffffffffffffffffffffffffffffffffffffffff16611d74836107d4565b73ffffffffffffffffffffffffffffffffffffffff167f8c5be1e5ebec7d5bd14f71427d1e84f3dd0314c0f7b2291e5b200ac8c7c3b92560405160405180910390a45050565b6000611dc582611c8d565b611e04576040517f08c379a0000000000000000000000000000000000000000000000000000000008152600401611dfb90613e7f565b60405180910390fd5b6000611e0f836107d4565b90508073ffffffffffffffffffffffffffffffffffffffff168473ffffffffffffffffffffffffffffffffffffffff161480611e7e57508373ffffffffffffffffffffffffffffffffffffffff16611e668461059f565b73ffffffffffffffffffffffffffffffffffffffff16145b80611e8f5750611e8e81856117e0565b5b91505092915050565b8273ffffffffffffffffffffffffffffffffffffffff16611eb8826107d4565b73ffffffffffffffffffffffffffffffffffffffff1614611f0e576040517f08c379a0000000000000000000000000000000000000000000000000000000008152600401611f0590613f5f565b60405180910390fd5b600073ffffffffffffffffffffffffffffffffffffffff168273ffffffffffffffffffffffffffffffffffffffff161415611f7e576040517f08c379a0000000000000000000000000000000000000000000000000000000008152600401611f7590613e3f565b60405180910390fd5b611f898383836127be565b611f94600082611d01565b6001600360008573ffffffffffffffffffffffffffffffffffffffff1673ffffffffffffffffffffffffffffffffffffffff1681526020019081526020016000206000828254611fe491906142a5565b925050819055506001600360008473ffffffffffffffffffffffffffffffffffffffff1673ffffffffffffffffffffffffffffffffffffffff168152602001908152602001600020600082825461203b91906141c4565b92505081905550816002600083815260200190815260200160002060006101000a81548173ffffffffffffffffffffffffffffffffffffffff021916908373ffffffffffffffffffffffffffffffffffffffff160217905550808273ffffffffffffffffffffffffffffffffffffffff168473ffffffffffffffffffffffffffffffffffffffff167fddf252ad1be2c89b69c2b068fc378daa952ba7f163c4a11628f55a4df523b3ef60405160405180910390a4505050565b600081600001549050919050565b61211c8282604051806020016040528060008152506127c3565b5050565b6121ba83838360405160240161213893929190613dc1565b6040516020818303038152906040527f969cdd03000000000000000000000000000000000000000000000000000000007bffffffffffffffffffffffffffffffffffffffffffffffffffffffff19166020820180517bffffffffffffffffffffffffffffffffffffffffffffffffffffffff8381831617835250505050612795565b505050565b8173ffffffffffffffffffffffffffffffffffffffff168373ffffffffffffffffffffffffffffffffffffffff16141561222e576040517f08c379a000000000000000000000000000000000000000000000000000000000815260040161222590613e5f565b60405180910390fd5b80600560008573ffffffffffffffffffffffffffffffffffffffff1673ffffffffffffffffffffffffffffffffffffffff16815260200190815260200160002060008473ffffffffffffffffffffffffffffffffffffffff1673ffffffffffffffffffffffffffffffffffffffff16815260200190815260200160002060006101000a81548160ff0219169083151502179055508173ffffffffffffffffffffffffffffffffffffffff168373ffffffffffffffffffffffffffffffffffffffff167f17307eab39ab6107e8899845ad3d59bd9653f200f220920489ca2b5937696c318360405161231f9190613c76565b60405180910390a3505050565b612337848484611e98565b6123438484848461281e565b612382576040517f08c379a000000000000000000000000000000000000000000000000000000000815260040161237990613dff565b60405180910390fd5b50505050565b606060008214156123d0576040518060400160405280600181526020017f30000000000000000000000000000000000000000000000000000000000000008152509050612530565b600082905060005b600082146124025780806123eb906143c1565b915050600a826123fb919061421a565b91506123d8565b60008167ffffffffffffffff811115612444577f4e487b7100000000000000000000000000000000000000000000000000000000600052604160045260246000fd5b6040519080825280601f01601f1916602001820160405280156124765781602001600182028036833780820191505090505b5090505b600085146125295760018261248f91906142a5565b9150600a8561249e919061440a565b60306124aa91906141c4565b60f81b8183815181106124e6577f4e487b7100000000000000000000000000000000000000000000000000000000600052603260045260246000fd5b60200101907effffffffffffffffffffffffffffffffffffffffffffffffffffffffffffff1916908160001a905350600a85612522919061421a565b945061247a565b8093505050505b919050565b6060600082519050600081141561255e57604051806020016040528060008152509150506126ee565b6000600360028361256f91906141c4565b612579919061421a565b6004612585919061424b565b9050600060208261259691906141c4565b67ffffffffffffffff8111156125d5577f4e487b7100000000000000000000000000000000000000000000000000000000600052604160045260246000fd5b6040519080825280601f01601f1916602001820160405280156126075781602001600182028036833780820191505090505b509050600060405180606001604052806040815260200161459f604091399050600181016020830160005b868110156126ab5760038101905062ffffff818a015116603f8160121c168401518060081b905060ff603f83600c1c1686015116810190508060081b905060ff603f8360061c1686015116810190508060081b905060ff603f831686015116810190508060e01b90508084526004840193505050612632565b5060038606600181146126c557600281146126d5576126e0565b613d3d60f01b60028303526126e0565b603d60f81b60018303525b508484525050819450505050505b919050565b61278f8484848460405160240161270d9493929190613d0d565b6040516020818303038152906040527fd5cf17d0000000000000000000000000000000000000000000000000000000007bffffffffffffffffffffffffffffffffffffffffffffffffffffffff19166020820180517bffffffffffffffffffffffffffffffffffffffffffffffffffffffff8381831617835250505050612795565b50505050565b60008151905060006a636f6e736f6c652e6c6f679050602083016000808483855afa5050505050565b505050565b6127cd83836129b5565b6127da600084848461281e565b612819576040517f08c379a000000000000000000000000000000000000000000000000000000000815260040161281090613dff565b60405180910390fd5b505050565b600061283f8473ffffffffffffffffffffffffffffffffffffffff16612b83565b156129a8578373ffffffffffffffffffffffffffffffffffffffff1663150b7a02612868611cf9565b8786866040518563ffffffff1660e01b815260040161288a9493929190613bd1565b602060405180830381600087803b1580156128a457600080fd5b505af19250505080156128d557506040513d601f19601f820116820180604052508101906128d29190612f3f565b60015b612958573d8060008114612905576040519150601f19603f3d011682016040523d82523d6000602084013e61290a565b606091505b50600081511415612950576040517f08c379a000000000000000000000000000000000000000000000000000000000815260040161294790613dff565b60405180910390fd5b805181602001fd5b63150b7a0260e01b7bffffffffffffffffffffffffffffffffffffffffffffffffffffffff1916817bffffffffffffffffffffffffffffffffffffffffffffffffffffffff1916149150506129ad565b600190505b949350505050565b600073ffffffffffffffffffffffffffffffffffffffff168273ffffffffffffffffffffffffffffffffffffffff161415612a25576040517f08c379a0000000000000000000000000000000000000000000000000000000008152600401612a1c90613f1f565b60405180910390fd5b612a2e81611c8d565b15612a6e576040517f08c379a0000000000000000000000000000000000000000000000000000000008152600401612a6590613e1f565b60405180910390fd5b612a7a600083836127be565b6001600360008473ffffffffffffffffffffffffffffffffffffffff1673ffffffffffffffffffffffffffffffffffffffff1681526020019081526020016000206000828254612aca91906141c4565b92505081905550816002600083815260200190815260200160002060006101000a81548173ffffffffffffffffffffffffffffffffffffffff021916908373ffffffffffffffffffffffffffffffffffffffff160217905550808273ffffffffffffffffffffffffffffffffffffffff16600073ffffffffffffffffffffffffffffffffffffffff167fddf252ad1be2c89b69c2b068fc378daa952ba7f163c4a11628f55a4df523b3ef60405160405180910390a45050565b600080823b905060008111915050919050565b828054612ba29061438f565b90600052602060002090601f016020900481019282612bc45760008555612c0b565b82601f10612bdd57805160ff1916838001178555612c0b565b82800160010185558215612c0b579182015b82811115612c0a578251825591602001919060010190612bef565b5b509050612c189190612c81565b5090565b6040518060c001604052806000815260200160608152602001606081526020016000815260200160008152602001600081525090565b6040518060a0016040528060608152602001606081526020016000815260200160008152602001600081525090565b5b80821115612c9a576000816000905550600101612c82565b5090565b6000612cb1612cac84614107565b6140d6565b905082815260208101848484011115612cc957600080fd5b612cd484828561434d565b509392505050565b600081359050612ceb81614508565b92915050565b600081359050612d008161451f565b92915050565b600081359050612d1581614536565b92915050565b600081519050612d2a81614536565b92915050565b600082601f830112612d4157600080fd5b8135612d51848260208601612c9e565b91505092915050565b600081359050612d698161454d565b92915050565b600060208284031215612d8157600080fd5b6000612d8f84828501612cdc565b91505092915050565b60008060408385031215612dab57600080fd5b6000612db985828601612cdc565b9250506020612dca85828601612cdc565b9150509250929050565b600080600060608486031215612de957600080fd5b6000612df786828701612cdc565b9350506020612e0886828701612cdc565b9250506040612e1986828701612d5a565b9150509250925092565b60008060008060808587031215612e3957600080fd5b6000612e4787828801612cdc565b9450506020612e5887828801612cdc565b9350506040612e6987828801612d5a565b925050606085013567ffffffffffffffff811115612e8657600080fd5b612e9287828801612d30565b91505092959194509250565b60008060408385031215612eb157600080fd5b6000612ebf85828601612cdc565b9250506020612ed085828601612cf1565b9150509250929050565b60008060408385031215612eed57600080fd5b6000612efb85828601612cdc565b9250506020612f0c85828601612d5a565b9150509250929050565b600060208284031215612f2857600080fd5b6000612f3684828501612d06565b91505092915050565b600060208284031215612f5157600080fd5b6000612f5f84828501612d1b565b91505092915050565b600060208284031215612f7a57600080fd5b6000612f8884828501612d5a565b91505092915050565b6000612f9d83836139b1565b905092915050565b612fae816142d9565b82525050565b6000612fbf82614147565b612fc98185614175565b935083602082028501612fdb85614137565b8060005b858110156130175784840389528151612ff88582612f91565b945061300383614168565b925060208a01995050600181019050612fdf565b50829750879550505050505092915050565b613032816142eb565b82525050565b600061304382614152565b61304d8185614186565b935061305d81856020860161435c565b613066816144f7565b840191505092915050565b600061307c8261415d565b6130868185614197565b935061309681856020860161435c565b61309f816144f7565b840191505092915050565b60006130b58261415d565b6130bf81856141a8565b93506130cf81856020860161435c565b6130d8816144f7565b840191505092915050565b60006130ee8261415d565b6130f881856141b9565b935061310881856020860161435c565b80840191505092915050565b6000613121600b836141b9565b91507f202d2d204e465420233a200000000000000000000000000000000000000000006000830152600b82019050919050565b60006131616032836141a8565b91507f4552433732313a207472616e7366657220746f206e6f6e20455243373231526560008301527f63656976657220696d706c656d656e74657200000000000000000000000000006020830152604082019050919050565b60006131c7601c836141a8565b91507f4552433732313a20746f6b656e20616c7265616479206d696e746564000000006000830152602082019050919050565b6000613207604b836141b9565b91507f222c20226465736372697074696f6e223a20225468697320697320746865206660008301527f697273742067656e65726174696f6e206f6620736b69726d697368657273222c60208301527f2022696d616765223a20220000000000000000000000000000000000000000006040830152604b82019050919050565b6000613293600e836141b9565b91507f2c20226d61785f76616c7565223a0000000000000000000000000000000000006000830152600e82019050919050565b60006132d36024836141a8565b91507f4552433732313a207472616e7366657220746f20746865207a65726f2061646460008301527f72657373000000000000000000000000000000000000000000000000000000006020830152604082019050919050565b60006133396019836141a8565b91507f4552433732313a20617070726f766520746f2063616c6c6572000000000000006000830152602082019050919050565b6000613379602c836141a8565b91507f4552433732313a206f70657261746f7220717565727920666f72206e6f6e657860008301527f697374656e7420746f6b656e00000000000000000000000000000000000000006020830152604082019050919050565b60006133df6038836141a8565b91507f4552433732313a20617070726f76652063616c6c6572206973206e6f74206f7760008301527f6e6572206e6f7220617070726f76656420666f7220616c6c00000000000000006020830152604082019050919050565b6000613445602a836141a8565b91507f4552433732313a2062616c616e636520717565727920666f7220746865207a6560008301527f726f2061646472657373000000000000000000000000000000000000000000006020830152604082019050919050565b60006134ab6029836141a8565b91507f4552433732313a206f776e657220717565727920666f72206e6f6e657869737460008301527f656e7420746f6b656e00000000000000000000000000000000000000000000006020830152604082019050919050565b60006135116004836141b9565b91507f7d205d7d000000000000000000000000000000000000000000000000000000006000830152600482019050919050565b60006135516024836141a8565b91507f596f757220736b69726d697368657220686173206265656e206465666561746560008301527f64203a28000000000000000000000000000000000000000000000000000000006020830152604082019050919050565b60006135b76020836141a8565b91507f4552433732313a206d696e7420746f20746865207a65726f20616464726573736000830152602082019050919050565b60006135f7602c836141a8565b91507f4552433732313a20617070726f76656420717565727920666f72206e6f6e657860008301527f697374656e7420746f6b656e00000000000000000000000000000000000000006020830152604082019050919050565b600061365d6029836141a8565b91507f4552433732313a207472616e73666572206f6620746f6b656e2074686174206960008301527f73206e6f74206f776e00000000000000000000000000000000000000000000006020830152604082019050919050565b60006136c3600a836141b9565b91507f7b226e616d65223a2022000000000000000000000000000000000000000000006000830152600a82019050919050565b60006137036021836141a8565b91507f4552433732313a20617070726f76616c20746f2063757272656e74206f776e6560008301527f72000000000000000000000000000000000000000000000000000000000000006020830152604082019050919050565b6000613769601d836141b9565b91507f646174613a6170706c69636174696f6e2f6a736f6e3b6261736536342c0000006000830152601d82019050919050565b60006137a96031836141a8565b91507f4552433732313a207472616e736665722063616c6c6572206973206e6f74206f60008301527f776e6572206e6f7220617070726f7665640000000000000000000000000000006020830152604082019050919050565b600061380f603d836141b9565b91507f222c202261747472696275746573223a205b207b202274726169745f7479706560008301527f223a20224865616c746820506f696e7473222c202276616c7565223a200000006020830152603d82019050919050565b6000613875602d836141b9565b91507f7d2c207b202274726169745f74797065223a202241747461636b2044616d616760008301527f65222c202276616c7565223a20000000000000000000000000000000000000006020830152602d82019050919050565b60006138db6022836141a8565b91507f54686520626f73732068617320616c7265616479206265656e2064656665617460008301527f65640000000000000000000000000000000000000000000000000000000000006020830152604082019050919050565b600060a08301600083015184820360008601526139518282613071565b9150506020830151848203602086015261396b8282613071565b91505060408301516139806040860182613ad1565b5060608301516139936060860182613ad1565b5060808301516139a66080860182613ad1565b508091505092915050565b600060c0830160008301516139c96000860182613ad1565b50602083015184820360208601526139e18282613071565b915050604083015184820360408601526139fb8282613071565b9150506060830151613a106060860182613ad1565b506080830151613a236080860182613ad1565b5060a0830151613a3660a0860182613ad1565b508091505092915050565b600060c083016000830151613a596000860182613ad1565b5060208301518482036020860152613a718282613071565b91505060408301518482036040860152613a8b8282613071565b9150506060830151613aa06060860182613ad1565b506080830151613ab36080860182613ad1565b5060a0830151613ac660a0860182613ad1565b508091505092915050565b613ada81614343565b82525050565b613ae981614343565b82525050565b6000613afa826136b6565b9150613b0682896130e3565b9150613b1182613114565b9150613b1d82886130e3565b9150613b28826131fa565b9150613b3482876130e3565b9150613b3f82613802565b9150613b4b82866130e3565b9150613b5682613286565b9150613b6282856130e3565b9150613b6d82613868565b9150613b7982846130e3565b9150613b8482613504565b9150819050979650505050505050565b6000613b9f8261375c565b9150613bab82846130e3565b915081905092915050565b6000602082019050613bcb6000830184612fa5565b92915050565b6000608082019050613be66000830187612fa5565b613bf36020830186612fa5565b613c006040830185613ae0565b8181036060830152613c128184613038565b905095945050505050565b6000606082019050613c326000830186612fa5565b613c3f6020830185613ae0565b613c4c6040830184613ae0565b949350505050565b60006020820190508181036000830152613c6e8184612fb4565b905092915050565b6000602082019050613c8b6000830184613029565b92915050565b60006020820190508181036000830152613cab81846130aa565b905092915050565b60006080820190508181036000830152613ccd81876130aa565b90508181036020830152613ce181866130aa565b9050613cf06040830185613ae0565b8181036060830152613d0281846130aa565b905095945050505050565b60006080820190508181036000830152613d2781876130aa565b90508181036020830152613d3b81866130aa565b9050613d4a6040830185613ae0565b613d576060830184613ae0565b95945050505050565b600060a0820190508181036000830152613d7a81886130aa565b90508181036020830152613d8e81876130aa565b9050613d9d6040830186613ae0565b613daa6060830185613ae0565b613db76080830184613ae0565b9695505050505050565b60006060820190508181036000830152613ddb81866130aa565b9050613dea6020830185613ae0565b613df76040830184613ae0565b949350505050565b60006020820190508181036000830152613e1881613154565b9050919050565b60006020820190508181036000830152613e38816131ba565b9050919050565b60006020820190508181036000830152613e58816132c6565b9050919050565b60006020820190508181036000830152613e788161332c565b9050919050565b60006020820190508181036000830152613e988161336c565b9050919050565b60006020820190508181036000830152613eb8816133d2565b9050919050565b60006020820190508181036000830152613ed881613438565b9050919050565b60006020820190508181036000830152613ef88161349e565b9050919050565b60006020820190508181036000830152613f1881613544565b9050919050565b60006020820190508181036000830152613f38816135aa565b9050919050565b60006020820190508181036000830152613f58816135ea565b9050919050565b60006020820190508181036000830152613f7881613650565b9050919050565b60006020820190508181036000830152613f98816136f6565b9050919050565b60006020820190508181036000830152613fb88161379c565b9050919050565b60006020820190508181036000830152613fd8816138ce565b9050919050565b60006020820190508181036000830152613ff98184613934565b905092915050565b6000602082019050818103600083015261401b8184613a41565b905092915050565b60006020820190506140386000830184613ae0565b92915050565b600060c0820190506140536000830189613ae0565b818103602083015261406581886130aa565b9050818103604083015261407981876130aa565b90506140886060830186613ae0565b6140956080830185613ae0565b6140a260a0830184613ae0565b979650505050505050565b60006040820190506140c26000830185613ae0565b6140cf6020830184613ae0565b9392505050565b6000604051905081810181811067ffffffffffffffff821117156140fd576140fc6144c8565b5b8060405250919050565b600067ffffffffffffffff821115614122576141216144c8565b5b601f19601f8301169050602081019050919050565b6000819050602082019050919050565b600081519050919050565b600081519050919050565b600081519050919050565b6000602082019050919050565b600082825260208201905092915050565b600082825260208201905092915050565b600082825260208201905092915050565b600082825260208201905092915050565b600081905092915050565b60006141cf82614343565b91506141da83614343565b9250827fffffffffffffffffffffffffffffffffffffffffffffffffffffffffffffffff0382111561420f5761420e61443b565b5b828201905092915050565b600061422582614343565b915061423083614343565b9250826142405761423f61446a565b5b828204905092915050565b600061425682614343565b915061426183614343565b9250817fffffffffffffffffffffffffffffffffffffffffffffffffffffffffffffffff048311821515161561429a5761429961443b565b5b828202905092915050565b60006142b082614343565b91506142bb83614343565b9250828210156142ce576142cd61443b565b5b828203905092915050565b60006142e482614323565b9050919050565b60008115159050919050565b60007fffffffff0000000000000000000000000000000000000000000000000000000082169050919050565b600073ffffffffffffffffffffffffffffffffffffffff82169050919050565b6000819050919050565b82818337600083830152505050565b60005b8381101561437a57808201518184015260208101905061435f565b83811115614389576000848401525b50505050565b600060028204905060018216806143a757607f821691505b602082108114156143bb576143ba614499565b5b50919050565b60006143cc82614343565b91507fffffffffffffffffffffffffffffffffffffffffffffffffffffffffffffffff8214156143ff576143fe61443b565b5b600182019050919050565b600061441582614343565b915061442083614343565b9250826144305761442f61446a565b5b828206905092915050565b7f4e487b7100000000000000000000000000000000000000000000000000000000600052601160045260246000fd5b7f4e487b7100000000000000000000000000000000000000000000000000000000600052601260045260246000fd5b7f4e487b7100000000000000000000000000000000000000000000000000000000600052602260045260246000fd5b7f4e487b7100000000000000000000000000000000000000000000000000000000600052604160045260246000fd5b6000601f19601f8301169050919050565b614511816142d9565b811461451c57600080fd5b50565b614528816142eb565b811461453357600080fd5b50565b61453f816142f7565b811461454a57600080fd5b50565b61455681614343565b811461456157600080fd5b5056fe426f7373202573207761732061747461636b656420616e64206e6f772068617320257320485020616e64206465616c742025732064616d6167654142434445464748494a4b4c4d4e4f505152535455565758595a6162636465666768696a6b6c6d6e6f707172737475767778797a303132333435363738392b2f4d696e746564204e465420772f20746f6b656e494420257320616e6420636861726163746572547970652025730a506c6179657220772f206368617261637465723a2025732061747461636b6564212043757272656e74204850206973206e6f7720257320616e6420646d67206465616c7420776173202573a26469706673582212205cf30c75b49ea4debf8ea5b79cbe7fca6adee7a633a1c420ef70de3ba0b8563b64736f6c634300080000334372656174656420736b69726d69736865722025732077697468206865616c746820257320485020616e6420696d672025734372656174656420626f73732025732c20776974682025732048502c2074686520696d616765206973202573",
  "linkReferences": {},
  "deployedLinkReferences": {}
}