{
  "_format": "hh-sol-artifact-1",
  "contractName": "myFirstNFTs",
  "sourceName": "contracts/myFirstNFTs.sol",
  "abi": [
    {
      "inputs": [],
      "stateMutability": "nonpayable",
      "type": "constructor"
    },
    {
      "anonymous": false,
      "inputs": [
        {
          "indexed": true,
          "internalType": "address",
          "name": "owner",
          "type": "address"
        },
        {
          "indexed": true,
          "internalType": "address",
          "name": "approved",
          "type": "address"
        },
        {
          "indexed": true,
          "internalType": "uint256",
          "name": "tokenId",
          "type": "uint256"
        }
      ],
      "name": "Approval",
      "type": "event"
    },
    {
      "anonymous": false,
      "inputs": [
        {
          "indexed": true,
          "internalType": "address",
          "name": "owner",
          "type": "address"
        },
        {
          "indexed": true,
          "internalType": "address",
          "name": "operator",
          "type": "address"
        },
        {
          "indexed": false,
          "internalType": "bool",
          "name": "approved",
          "type": "bool"
        }
      ],
      "name": "ApprovalForAll",
      "type": "event"
    },
    {
      "anonymous": false,
      "inputs": [
        {
          "indexed": true,
          "internalType": "address",
          "name": "from",
          "type": "address"
        },
        {
          "indexed": true,
          "internalType": "address",
          "name": "to",
          "type": "address"
        },
        {
          "indexed": true,
          "internalType": "uint256",
          "name": "tokenId",
          "type": "uint256"
        }
      ],
      "name": "Transfer",
      "type": "event"
    },
    {
      "anonymous": false,
      "inputs": [
        {
          "indexed": false,
          "internalType": "address",
          "name": "sender",
          "type": "address"
        },
        {
          "indexed": false,
          "internalType": "uint256",
          "name": "tokenID",
          "type": "uint256"
        }
      ],
      "name": "birthedNFT",
      "type": "event"
    },
    {
      "inputs": [
        {
          "internalType": "address",
          "name": "to",
          "type": "address"
        },
        {
          "internalType": "uint256",
          "name": "tokenId",
          "type": "uint256"
        }
      ],
      "name": "approve",
      "outputs": [],
      "stateMutability": "nonpayable",
      "type": "function"
    },
    {
      "inputs": [
        {
          "internalType": "address",
          "name": "owner",
          "type": "address"
        }
      ],
      "name": "balanceOf",
      "outputs": [
        {
          "internalType": "uint256",
          "name": "",
          "type": "uint256"
        }
      ],
      "stateMutability": "view",
      "type": "function"
    },
    {
      "inputs": [],
      "name": "birthNFT",
      "outputs": [],
      "stateMutability": "nonpayable",
      "type": "function"
    },
    {
      "inputs": [
        {
          "internalType": "uint256",
          "name": "tokenId",
          "type": "uint256"
        }
      ],
      "name": "getApproved",
      "outputs": [
        {
          "internalType": "address",
          "name": "",
          "type": "address"
        }
      ],
      "stateMutability": "view",
      "type": "function"
    },
    {
      "inputs": [],
      "name": "getCirculatingSupply",
      "outputs": [
        {
          "internalType": "uint256",
          "name": "",
          "type": "uint256"
        }
      ],
      "stateMutability": "view",
      "type": "function"
    },
    {
      "inputs": [
        {
          "internalType": "address",
          "name": "owner",
          "type": "address"
        },
        {
          "internalType": "address",
          "name": "operator",
          "type": "address"
        }
      ],
      "name": "isApprovedForAll",
      "outputs": [
        {
          "internalType": "bool",
          "name": "",
          "type": "bool"
        }
      ],
      "stateMutability": "view",
      "type": "function"
    },
    {
      "inputs": [],
      "name": "name",
      "outputs": [
        {
          "internalType": "string",
          "name": "",
          "type": "string"
        }
      ],
      "stateMutability": "view",
      "type": "function"
    },
    {
      "inputs": [
        {
          "internalType": "uint256",
          "name": "tokenId",
          "type": "uint256"
        }
      ],
      "name": "ownerOf",
      "outputs": [
        {
          "internalType": "address",
          "name": "",
          "type": "address"
        }
      ],
      "stateMutability": "view",
      "type": "function"
    },
    {
      "inputs": [
        {
          "internalType": "address",
          "name": "from",
          "type": "address"
        },
        {
          "internalType": "address",
          "name": "to",
          "type": "address"
        },
        {
          "internalType": "uint256",
          "name": "tokenId",
          "type": "uint256"
        }
      ],
      "name": "safeTransferFrom",
      "outputs": [],
      "stateMutability": "nonpayable",
      "type": "function"
    },
    {
      "inputs": [
        {
          "internalType": "address",
          "name": "from",
          "type": "address"
        },
        {
          "internalType": "address",
          "name": "to",
          "type": "address"
        },
        {
          "internalType": "uint256",
          "name": "tokenId",
          "type": "uint256"
        },
        {
          "internalType": "bytes",
          "name": "_data",
          "type": "bytes"
        }
      ],
      "name": "safeTransferFrom",
      "outputs": [],
      "stateMutability": "nonpayable",
      "type": "function"
    },
    {
      "inputs": [
        {
          "internalType": "uint256",
          "name": "_tokenId",
          "type": "uint256"
        }
      ],
      "name": "selectRandomBackground",
      "outputs": [
        {
          "internalType": "string",
          "name": "",
          "type": "string"
        }
      ],
      "stateMutability": "view",
      "type": "function"
    },
    {
      "inputs": [
        {
          "internalType": "uint256",
          "name": "tokenId",
          "type": "uint256"
        }
      ],
      "name": "selectRandomFirstWord",
      "outputs": [
        {
          "internalType": "string",
          "name": "",
          "type": "string"
        }
      ],
      "stateMutability": "view",
      "type": "function"
    },
    {
      "inputs": [
        {
          "internalType": "uint256",
          "name": "tokenId",
          "type": "uint256"
        }
      ],
      "name": "selectRandomSecondWord",
      "outputs": [
        {
          "internalType": "string",
          "name": "",
          "type": "string"
        }
      ],
      "stateMutability": "view",
      "type": "function"
    },
    {
      "inputs": [
        {
          "internalType": "uint256",
          "name": "tokenId",
          "type": "uint256"
        }
      ],
      "name": "selectRandomThirdWord",
      "outputs": [
        {
          "internalType": "string",
          "name": "",
          "type": "string"
        }
      ],
      "stateMutability": "view",
      "type": "function"
    },
    {
      "inputs": [
        {
          "internalType": "address",
          "name": "operator",
          "type": "address"
        },
        {
          "internalType": "bool",
          "name": "approved",
          "type": "bool"
        }
      ],
      "name": "setApprovalForAll",
      "outputs": [],
      "stateMutability": "nonpayable",
      "type": "function"
    },
    {
      "inputs": [
        {
          "internalType": "bytes4",
          "name": "interfaceId",
          "type": "bytes4"
        }
      ],
      "name": "supportsInterface",
      "outputs": [
        {
          "internalType": "bool",
          "name": "",
          "type": "bool"
        }
      ],
      "stateMutability": "view",
      "type": "function"
    },
    {
      "inputs": [],
      "name": "symbol",
      "outputs": [
        {
          "internalType": "string",
          "name": "",
          "type": "string"
        }
      ],
      "stateMutability": "view",
      "type": "function"
    },
    {
      "inputs": [
        {
          "internalType": "uint256",
          "name": "tokenId",
          "type": "uint256"
        }
      ],
      "name": "tokenURI",
      "outputs": [
        {
          "internalType": "string",
          "name": "",
          "type": "string"
        }
      ],
      "stateMutability": "view",
      "type": "function"
    },
    {
      "inputs": [
        {
          "internalType": "address",
          "name": "from",
          "type": "address"
        },
        {
          "internalType": "address",
          "name": "to",
          "type": "address"
        },
        {
          "internalType": "uint256",
          "name": "tokenId",
          "type": "uint256"
        }
      ],
      "name": "transferFrom",
      "outputs": [],
      "stateMutability": "nonpayable",
      "type": "function"
    }
  ],
  "bytecode": "0x60a0604052603260809081525060405180610100016040528060d3815260200162004c9f60d39139600890805190602001906200003e92919062000cd3565b5060405180608001604052806056815260200162004d7260569139600990805190602001906200007092919062000cd3565b506040518061018001604052806040518060400160405280600781526020017f4e6175676874790000000000000000000000000000000000000000000000000081525081526020016040518060400160405280600581526020017f53696c6c7900000000000000000000000000000000000000000000000000000081525081526020016040518060400160405280600781526020017f456e72616765640000000000000000000000000000000000000000000000000081525081526020016040518060400160405280600681526020017f53746f6e6564000000000000000000000000000000000000000000000000000081525081526020016040518060400160405280600681526020017f48756e677279000000000000000000000000000000000000000000000000000081525081526020016040518060400160405280600781526020017f546869727374790000000000000000000000000000000000000000000000000081525081526020016040518060400160405280600881526020017f596561726e696e6700000000000000000000000000000000000000000000000081525081526020016040518060400160405280600881526020017f446563697466756c00000000000000000000000000000000000000000000000081525081526020016040518060400160405280600a81526020017f466c756d7074696f75730000000000000000000000000000000000000000000081525081526020016040518060400160405280600581526020017f536565647900000000000000000000000000000000000000000000000000000081525081526020016040518060400160405280600581526020017f536861647900000000000000000000000000000000000000000000000000000081525081526020016040518060400160405280600481526020017f5375737300000000000000000000000000000000000000000000000000000000815250815250600a90600c6200035192919062000d64565b506040518061016001604052806040518060400160405280600781526020017f57617272696f720000000000000000000000000000000000000000000000000081525081526020016040518060400160405280600881526020017f506163696669737400000000000000000000000000000000000000000000000081525081526020016040518060400160405280600981526020017f426974636f696e6572000000000000000000000000000000000000000000000081525081526020016040518060400160405280600581526020017f526176657200000000000000000000000000000000000000000000000000000081525081526020016040518060400160405280600681526020017f536c61796572000000000000000000000000000000000000000000000000000081525081526020016040518060400160405280600781526020017f447265616d65720000000000000000000000000000000000000000000000000081525081526020016040518060400160405280600b81526020017f416c6f6361746f6f6f6f7200000000000000000000000000000000000000000081525081526020016040518060400160405280600b81526020017f526f7461746f6f6f6f6f7200000000000000000000000000000000000000000081525081526020016040518060400160405280600481526020017f57696d700000000000000000000000000000000000000000000000000000000081525081526020016040518060400160405280600981526020017f4c6567656e64617279000000000000000000000000000000000000000000000081525081526020016040518060400160405280600881526020017f4f6d6e69766f7265000000000000000000000000000000000000000000000000815250815250600b90600b620005f792919062000dcb565b50604051806101c001604052806040518060400160405280600481526020017f447564650000000000000000000000000000000000000000000000000000000081525081526020016040518060400160405280600581526020017f50616e646100000000000000000000000000000000000000000000000000000081525081526020016040518060400160405280600581526020017f4e696e6a6100000000000000000000000000000000000000000000000000000081525081526020016040518060400160405280600681526020017f5a6f6d626965000000000000000000000000000000000000000000000000000081525081526020016040518060400160405280600681526020017f4d6f6e6b6579000000000000000000000000000000000000000000000000000081525081526020016040518060400160405280600581526020017f416c69656e00000000000000000000000000000000000000000000000000000081525081526020016040518060400160405280600581526020017f47686f737400000000000000000000000000000000000000000000000000000081525081526020016040518060400160405280600581526020017f44726f6e6500000000000000000000000000000000000000000000000000000081525081526020016040518060400160405280600781526020017f416e64726f69640000000000000000000000000000000000000000000000000081525081526020016040518060400160405280600781526020017f466967687465720000000000000000000000000000000000000000000000000081525081526020016040518060400160405280600781526020017f466f756e6465720000000000000000000000000000000000000000000000000081525081526020016040518060400160405280600781526020017f52756770756c6c0000000000000000000000000000000000000000000000000081525081526020016040518060400160405280600981526020017f576869726c706f6f6c000000000000000000000000000000000000000000000081525081526020016040518060400160405280600681526020017f4a6572656d790000000000000000000000000000000000000000000000000000815250815250600c90600e6200094e92919062000e32565b506040518060e001604052806040518060400160405280600781526020017f236261353666360000000000000000000000000000000000000000000000000081525081526020016040518060400160405280600781526020017f233030313133330000000000000000000000000000000000000000000000000081525081526020016040518060400160405280600781526020017f236638623530300000000000000000000000000000000000000000000000000081525081526020016040518060400160405280600781526020017f233034323036390000000000000000000000000000000000000000000000000081525081526020016040518060400160405280600781526020017f236330656266660000000000000000000000000000000000000000000000000081525081526020016040518060400160405280600781526020017f236666373438630000000000000000000000000000000000000000000000000081525081526020016040518060400160405280600781526020017f2366663864613100000000000000000000000000000000000000000000000000815250815250600d90600762000b0792919062000e99565b5034801562000b1557600080fd5b506040518060400160405280600f81526020017f416e6f6e2055736572204e616d657300000000000000000000000000000000008152506040518060400160405280600481526020017f414e4f4e00000000000000000000000000000000000000000000000000000000815250816000908051906020019062000b9a92919062000cd3565b50806001908051906020019062000bb392919062000cd3565b50505062000c016040518060400160405280601c81526020017f54686973206973206d79206669727374204e46542070726f6a6563740000000081525062000c0760201b6200143a1760201c565b620010ba565b62000ca78160405160240162000c1e919062000fce565b6040516020818303038152906040527f41304fac000000000000000000000000000000000000000000000000000000007bffffffffffffffffffffffffffffffffffffffffffffffffffffffff19166020820180517bffffffffffffffffffffffffffffffffffffffffffffffffffffffff838183161783525050505062000caa60201b60201c565b50565b60008151905060006a636f6e736f6c652e6c6f679050602083016000808483855afa5050505050565b82805462000ce19062001044565b90600052602060002090601f01602090048101928262000d05576000855562000d51565b82601f1062000d2057805160ff191683800117855562000d51565b8280016001018555821562000d51579182015b8281111562000d5057825182559160200191906001019062000d33565b5b50905062000d60919062000f00565b5090565b82805482825590600052602060002090810192821562000db8579160200282015b8281111562000db757825182908051906020019062000da692919062000cd3565b509160200191906001019062000d85565b5b50905062000dc7919062000f1f565b5090565b82805482825590600052602060002090810192821562000e1f579160200282015b8281111562000e1e57825182908051906020019062000e0d92919062000cd3565b509160200191906001019062000dec565b5b50905062000e2e919062000f1f565b5090565b82805482825590600052602060002090810192821562000e86579160200282015b8281111562000e8557825182908051906020019062000e7492919062000cd3565b509160200191906001019062000e53565b5b50905062000e95919062000f1f565b5090565b82805482825590600052602060002090810192821562000eed579160200282015b8281111562000eec57825182908051906020019062000edb92919062000cd3565b509160200191906001019062000eba565b5b50905062000efc919062000f1f565b5090565b5b8082111562000f1b57600081600090555060010162000f01565b5090565b5b8082111562000f43576000818162000f39919062000f47565b5060010162000f20565b5090565b50805462000f559062001044565b6000825580601f1062000f69575062000f8a565b601f01602090049060005260206000209081019062000f89919062000f00565b5b50565b600062000f9a8262000ff2565b62000fa6818562000ffd565b935062000fb88185602086016200100e565b62000fc381620010a9565b840191505092915050565b6000602082019050818103600083015262000fea818462000f8d565b905092915050565b600081519050919050565b600082825260208201905092915050565b60005b838110156200102e57808201518184015260208101905062001011565b838111156200103e576000848401525b50505050565b600060028204905060018216806200105d57607f821691505b602082108114156200107457620010736200107a565b5b50919050565b7f4e487b7100000000000000000000000000000000000000000000000000000000600052602260045260246000fd5b6000601f19601f8301169050919050565b608051613bcc620010d360003960005050613bcc6000f3fe608060405234801561001057600080fd5b50600436106101215760003560e01c806370a08231116100ad578063b88d4fde11610071578063b88d4fde14610340578063c7fa53971461035c578063c87b56dd1461038c578063e533c169146103bc578063e985e9c5146103c657610121565b806370a0823114610276578063810f53ac146102a6578063937c6470146102d657806395d89b4114610306578063a22cb4651461032457610121565b8063095ea7b3116100f4578063095ea7b3146101d457806323b872dd146101f05780632b112e491461020c57806342842e0e1461022a5780636352211e1461024657610121565b8063013fd7fc1461012657806301ffc9a71461015657806306fdde0314610186578063081812fc146101a4575b600080fd5b610140600480360381019061013b919061271f565b6103f6565b60405161014d9190613428565b60405180910390f35b610170600480360381019061016b91906126cd565b610514565b60405161017d919061340d565b60405180910390f35b61018e6105f6565b60405161019b9190613428565b60405180910390f35b6101be60048036038101906101b9919061271f565b610688565b6040516101cb919061337d565b60405180910390f35b6101ee60048036038101906101e99190612691565b61070d565b005b61020a6004803603810190610205919061258b565b610825565b005b610214610885565b60405161022191906136a8565b60405180910390f35b610244600480360381019061023f919061258b565b610896565b005b610260600480360381019061025b919061271f565b6108b6565b60405161026d919061337d565b60405180910390f35b610290600480360381019061028b9190612526565b610968565b60405161029d91906136a8565b60405180910390f35b6102c060048036038101906102bb919061271f565b610a20565b6040516102cd9190613428565b60405180910390f35b6102f060048036038101906102eb919061271f565b610b3e565b6040516102fd9190613428565b60405180910390f35b61030e610c5c565b60405161031b9190613428565b60405180910390f35b61033e60048036038101906103399190612655565b610cee565b005b61035a600480360381019061035591906125da565b610e6f565b005b6103766004803603810190610371919061271f565b610ed1565b6040516103839190613428565b60405180910390f35b6103a660048036038101906103a1919061271f565b610fef565b6040516103b39190613428565b60405180910390f35b6103c4611141565b005b6103e060048036038101906103db919061254f565b6113a6565b6040516103ed919061340d565b60405180910390f35b6060600061042a610406846114d3565b604051602001610416919061328e565b604051602081830303815290604052611680565b9050600c805490508161043d91906139c2565b9050600c8181548110610479577f4e487b7100000000000000000000000000000000000000000000000000000000600052603260045260246000fd5b90600052602060002001805461048e90613947565b80601f01602080910402602001604051908101604052809291908181526020018280546104ba90613947565b80156105075780601f106104dc57610100808354040283529160200191610507565b820191906000526020600020905b8154815290600101906020018083116104ea57829003601f168201915b5050505050915050919050565b60007f80ac58cd000000000000000000000000000000000000000000000000000000007bffffffffffffffffffffffffffffffffffffffffffffffffffffffff1916827bffffffffffffffffffffffffffffffffffffffffffffffffffffffff191614806105df57507f5b5e139f000000000000000000000000000000000000000000000000000000007bffffffffffffffffffffffffffffffffffffffffffffffffffffffff1916827bffffffffffffffffffffffffffffffffffffffffffffffffffffffff1916145b806105ef57506105ee826116b3565b5b9050919050565b60606000805461060590613947565b80601f016020809104026020016040519081016040528092919081815260200182805461063190613947565b801561067e5780601f106106535761010080835404028352916020019161067e565b820191906000526020600020905b81548152906001019060200180831161066157829003601f168201915b5050505050905090565b60006106938261171d565b6106d2576040517f08c379a00000000000000000000000000000000000000000000000000000000081526004016106c9906135e8565b60405180910390fd5b6004600083815260200190815260200160002060009054906101000a900473ffffffffffffffffffffffffffffffffffffffff169050919050565b6000610718826108b6565b90508073ffffffffffffffffffffffffffffffffffffffff168373ffffffffffffffffffffffffffffffffffffffff161415610789576040517f08c379a000000000000000000000000000000000000000000000000000000000815260040161078090613648565b60405180910390fd5b8073ffffffffffffffffffffffffffffffffffffffff166107a8611789565b73ffffffffffffffffffffffffffffffffffffffff1614806107d757506107d6816107d1611789565b6113a6565b5b610816576040517f08c379a000000000000000000000000000000000000000000000000000000000815260040161080d90613528565b60405180910390fd5b6108208383611791565b505050565b610836610830611789565b8261184a565b610875576040517f08c379a000000000000000000000000000000000000000000000000000000000815260040161086c90613668565b60405180910390fd5b610880838383611928565b505050565b60006108916007611b84565b905090565b6108b183838360405180602001604052806000815250610e6f565b505050565b6000806002600084815260200190815260200160002060009054906101000a900473ffffffffffffffffffffffffffffffffffffffff169050600073ffffffffffffffffffffffffffffffffffffffff168173ffffffffffffffffffffffffffffffffffffffff16141561095f576040517f08c379a000000000000000000000000000000000000000000000000000000000815260040161095690613568565b60405180910390fd5b80915050919050565b60008073ffffffffffffffffffffffffffffffffffffffff168273ffffffffffffffffffffffffffffffffffffffff1614156109d9576040517f08c379a00000000000000000000000000000000000000000000000000000000081526004016109d090613548565b60405180910390fd5b600360008373ffffffffffffffffffffffffffffffffffffffff1673ffffffffffffffffffffffffffffffffffffffff168152602001908152602001600020549050919050565b60606000610a54610a30846114d3565b604051602001610a409190613317565b604051602081830303815290604052611680565b9050600a8054905081610a6791906139c2565b9050600a8181548110610aa3577f4e487b7100000000000000000000000000000000000000000000000000000000600052603260045260246000fd5b906000526020600020018054610ab890613947565b80601f0160208091040260200160405190810160405280929190818152602001828054610ae490613947565b8015610b315780601f10610b0657610100808354040283529160200191610b31565b820191906000526020600020905b815481529060010190602001808311610b1457829003601f168201915b5050505050915050919050565b60606000610b72610b4e846114d3565b604051602001610b5e919061335b565b604051602081830303815290604052611680565b9050600d8054905081610b8591906139c2565b9050600d8181548110610bc1577f4e487b7100000000000000000000000000000000000000000000000000000000600052603260045260246000fd5b906000526020600020018054610bd690613947565b80601f0160208091040260200160405190810160405280929190818152602001828054610c0290613947565b8015610c4f5780601f10610c2457610100808354040283529160200191610c4f565b820191906000526020600020905b815481529060010190602001808311610c3257829003601f168201915b5050505050915050919050565b606060018054610c6b90613947565b80601f0160208091040260200160405190810160405280929190818152602001828054610c9790613947565b8015610ce45780601f10610cb957610100808354040283529160200191610ce4565b820191906000526020600020905b815481529060010190602001808311610cc757829003601f168201915b5050505050905090565b610cf6611789565b73ffffffffffffffffffffffffffffffffffffffff168273ffffffffffffffffffffffffffffffffffffffff161415610d64576040517f08c379a0000000000000000000000000000000000000000000000000000000008152600401610d5b906134e8565b60405180910390fd5b8060056000610d71611789565b73ffffffffffffffffffffffffffffffffffffffff1673ffffffffffffffffffffffffffffffffffffffff16815260200190815260200160002060008473ffffffffffffffffffffffffffffffffffffffff1673ffffffffffffffffffffffffffffffffffffffff16815260200190815260200160002060006101000a81548160ff0219169083151502179055508173ffffffffffffffffffffffffffffffffffffffff16610e1e611789565b73ffffffffffffffffffffffffffffffffffffffff167f17307eab39ab6107e8899845ad3d59bd9653f200f220920489ca2b5937696c3183604051610e63919061340d565b60405180910390a35050565b610e80610e7a611789565b8361184a565b610ebf576040517f08c379a0000000000000000000000000000000000000000000000000000000008152600401610eb690613668565b60405180910390fd5b610ecb84848484611b92565b50505050565b60606000610f05610ee1846114d3565b604051602001610ef191906132b0565b604051602081830303815290604052611680565b9050600b8054905081610f1891906139c2565b9050600b8181548110610f54577f4e487b7100000000000000000000000000000000000000000000000000000000600052603260045260246000fd5b906000526020600020018054610f6990613947565b80601f0160208091040260200160405190810160405280929190818152602001828054610f9590613947565b8015610fe25780601f10610fb757610100808354040283529160200191610fe2565b820191906000526020600020905b815481529060010190602001808311610fc557829003601f168201915b5050505050915050919050565b6060610ffa8261171d565b611039576040517f08c379a0000000000000000000000000000000000000000000000000000000008152600401611030906135c8565b60405180910390fd5b600060066000848152602001908152602001600020805461105990613947565b80601f016020809104026020016040519081016040528092919081815260200182805461108590613947565b80156110d25780601f106110a7576101008083540402835291602001916110d2565b820191906000526020600020905b8154815290600101906020018083116110b557829003601f168201915b5050505050905060006110e3611bee565b90506000815114156110f957819250505061113c565b60008251111561112e5780826040516020016111169291906131ce565b6040516020818303038152906040529250505061113c565b61113784611c05565b925050505b919050565b603261114d6007611b84565b1061118d576040517f08c379a000000000000000000000000000000000000000000000000000000000815260040161118490613688565b60405180910390fd5b60006111996007611b84565b905060006111a682610a20565b905060006111b383610ed1565b905060006111c0846103f6565b905060008383836040516020016111d9939291906131f2565b604051602081830303815290604052905060006111f586610b3e565b905060006008826009856040516020016112129493929190613223565b604051602081830303815290604052905060006112578461123284611cac565b6040516020016112439291906132d2565b604051602081830303815290604052611cac565b905060008160405160200161126c9190613339565b60405160208183030381529060405290506112bb6040518060400160405280601d81526020017f0a2d2d2d2d2d2d2d2d2d2d2d2d2d2d2d2d2d2d2d2d2d2d2d2d2d2d2d2d00000081525061143a565b6112e3816040516020016112cf919061326c565b60405160208183030381529060405261143a565b6113216040518060400160405280601d81526020017f0a2d2d2d2d2d2d2d2d2d2d2d2d2d2d2d2d2d2d2d2d2d2d2d2d2d2d2d2d00000081525061143a565b61132b338a611e6a565b6113358982611e88565b6113586040518060600160405280603a8152602001613b5d603a91398a33611efc565b6113626007611f9b565b7f14122daff170b0cd4b60492267981f4d84b8e808509fa57fd237e25a9aa0c2c2338a6040516113939291906133e4565b60405180910390a1505050505050505050565b6000600560008473ffffffffffffffffffffffffffffffffffffffff1673ffffffffffffffffffffffffffffffffffffffff16815260200190815260200160002060008373ffffffffffffffffffffffffffffffffffffffff1673ffffffffffffffffffffffffffffffffffffffff16815260200190815260200160002060009054906101000a900460ff16905092915050565b6114d08160405160240161144e9190613428565b6040516020818303038152906040527f41304fac000000000000000000000000000000000000000000000000000000007bffffffffffffffffffffffffffffffffffffffffffffffffffffffff19166020820180517bffffffffffffffffffffffffffffffffffffffffffffffffffffffff8381831617835250505050611fb1565b50565b6060600082141561151b576040518060400160405280600181526020017f3000000000000000000000000000000000000000000000000000000000000000815250905061167b565b600082905060005b6000821461154d57808061153690613979565b915050600a8261154691906137d2565b9150611523565b60008167ffffffffffffffff81111561158f577f4e487b7100000000000000000000000000000000000000000000000000000000600052604160045260246000fd5b6040519080825280601f01601f1916602001820160405280156115c15781602001600182028036833780820191505090505b5090505b60008514611674576001826115da919061385d565b9150600a856115e991906139c2565b60306115f5919061377c565b60f81b818381518110611631577f4e487b7100000000000000000000000000000000000000000000000000000000600052603260045260246000fd5b60200101907effffffffffffffffffffffffffffffffffffffffffffffffffffffffffffff1916908160001a905350600a8561166d91906137d2565b94506115c5565b8093505050505b919050565b60008160405160200161169391906131b7565b6040516020818303038152906040528051906020012060001c9050919050565b60007f01ffc9a7000000000000000000000000000000000000000000000000000000007bffffffffffffffffffffffffffffffffffffffffffffffffffffffff1916827bffffffffffffffffffffffffffffffffffffffffffffffffffffffff1916149050919050565b60008073ffffffffffffffffffffffffffffffffffffffff166002600084815260200190815260200160002060009054906101000a900473ffffffffffffffffffffffffffffffffffffffff1673ffffffffffffffffffffffffffffffffffffffff1614159050919050565b600033905090565b816004600083815260200190815260200160002060006101000a81548173ffffffffffffffffffffffffffffffffffffffff021916908373ffffffffffffffffffffffffffffffffffffffff160217905550808273ffffffffffffffffffffffffffffffffffffffff16611804836108b6565b73ffffffffffffffffffffffffffffffffffffffff167f8c5be1e5ebec7d5bd14f71427d1e84f3dd0314c0f7b2291e5b200ac8c7c3b92560405160405180910390a45050565b60006118558261171d565b611894576040517f08c379a000000000000000000000000000000000000000000000000000000000815260040161188b90613508565b60405180910390fd5b600061189f836108b6565b90508073ffffffffffffffffffffffffffffffffffffffff168473ffffffffffffffffffffffffffffffffffffffff16148061190e57508373ffffffffffffffffffffffffffffffffffffffff166118f684610688565b73ffffffffffffffffffffffffffffffffffffffff16145b8061191f575061191e81856113a6565b5b91505092915050565b8273ffffffffffffffffffffffffffffffffffffffff16611948826108b6565b73ffffffffffffffffffffffffffffffffffffffff161461199e576040517f08c379a000000000000000000000000000000000000000000000000000000000815260040161199590613608565b60405180910390fd5b600073ffffffffffffffffffffffffffffffffffffffff168273ffffffffffffffffffffffffffffffffffffffff161415611a0e576040517f08c379a0000000000000000000000000000000000000000000000000000000008152600401611a05906134c8565b60405180910390fd5b611a19838383611fda565b611a24600082611791565b6001600360008573ffffffffffffffffffffffffffffffffffffffff1673ffffffffffffffffffffffffffffffffffffffff1681526020019081526020016000206000828254611a74919061385d565b925050819055506001600360008473ffffffffffffffffffffffffffffffffffffffff1673ffffffffffffffffffffffffffffffffffffffff1681526020019081526020016000206000828254611acb919061377c565b92505081905550816002600083815260200190815260200160002060006101000a81548173ffffffffffffffffffffffffffffffffffffffff021916908373ffffffffffffffffffffffffffffffffffffffff160217905550808273ffffffffffffffffffffffffffffffffffffffff168473ffffffffffffffffffffffffffffffffffffffff167fddf252ad1be2c89b69c2b068fc378daa952ba7f163c4a11628f55a4df523b3ef60405160405180910390a4505050565b600081600001549050919050565b611b9d848484611928565b611ba984848484611fdf565b611be8576040517f08c379a0000000000000000000000000000000000000000000000000000000008152600401611bdf90613488565b60405180910390fd5b50505050565b606060405180602001604052806000815250905090565b6060611c108261171d565b611c4f576040517f08c379a0000000000000000000000000000000000000000000000000000000008152600401611c4690613628565b60405180910390fd5b6000611c59611bee565b90506000815111611c795760405180602001604052806000815250611ca4565b80611c83846114d3565b604051602001611c949291906131ce565b6040516020818303038152906040525b915050919050565b60606000825190506000811415611cd55760405180602001604052806000815250915050611e65565b60006003600283611ce6919061377c565b611cf091906137d2565b6004611cfc9190613803565b90506000602082611d0d919061377c565b67ffffffffffffffff811115611d4c577f4e487b7100000000000000000000000000000000000000000000000000000000600052604160045260246000fd5b6040519080825280601f01601f191660200182016040528015611d7e5781602001600182028036833780820191505090505b5090506000604051806060016040528060408152602001613b1d604091399050600181016020830160005b86811015611e225760038101905062ffffff818a015116603f8160121c168401518060081b905060ff603f83600c1c1686015116810190508060081b905060ff603f8360061c1686015116810190508060081b905060ff603f831686015116810190508060e01b90508084526004840193505050611da9565b506003860660018114611e3c5760028114611e4c57611e57565b613d3d60f01b6002830352611e57565b603d60f81b60018303525b508484525050819450505050505b919050565b611e84828260405180602001604052806000815250612176565b5050565b611e918261171d565b611ed0576040517f08c379a0000000000000000000000000000000000000000000000000000000008152600401611ec790613588565b60405180910390fd5b80600660008481526020019081526020016000209080519060200190611ef79291906123b2565b505050565b611f96838383604051602401611f149392919061344a565b6040516020818303038152906040527fe3849f79000000000000000000000000000000000000000000000000000000007bffffffffffffffffffffffffffffffffffffffffffffffffffffffff19166020820180517bffffffffffffffffffffffffffffffffffffffffffffffffffffffff8381831617835250505050611fb1565b505050565b6001816000016000828254019250508190555050565b60008151905060006a636f6e736f6c652e6c6f679050602083016000808483855afa5050505050565b505050565b60006120008473ffffffffffffffffffffffffffffffffffffffff166121d1565b15612169578373ffffffffffffffffffffffffffffffffffffffff1663150b7a02612029611789565b8786866040518563ffffffff1660e01b815260040161204b9493929190613398565b602060405180830381600087803b15801561206557600080fd5b505af192505050801561209657506040513d601f19601f8201168201806040525081019061209391906126f6565b60015b612119573d80600081146120c6576040519150601f19603f3d011682016040523d82523d6000602084013e6120cb565b606091505b50600081511415612111576040517f08c379a000000000000000000000000000000000000000000000000000000000815260040161210890613488565b60405180910390fd5b805181602001fd5b63150b7a0260e01b7bffffffffffffffffffffffffffffffffffffffffffffffffffffffff1916817bffffffffffffffffffffffffffffffffffffffffffffffffffffffff19161491505061216e565b600190505b949350505050565b61218083836121e4565b61218d6000848484611fdf565b6121cc576040517f08c379a00000000000000000000000000000000000000000000000000000000081526004016121c390613488565b60405180910390fd5b505050565b600080823b905060008111915050919050565b600073ffffffffffffffffffffffffffffffffffffffff168273ffffffffffffffffffffffffffffffffffffffff161415612254576040517f08c379a000000000000000000000000000000000000000000000000000000000815260040161224b906135a8565b60405180910390fd5b61225d8161171d565b1561229d576040517f08c379a0000000000000000000000000000000000000000000000000000000008152600401612294906134a8565b60405180910390fd5b6122a960008383611fda565b6001600360008473ffffffffffffffffffffffffffffffffffffffff1673ffffffffffffffffffffffffffffffffffffffff16815260200190815260200160002060008282546122f9919061377c565b92505081905550816002600083815260200190815260200160002060006101000a81548173ffffffffffffffffffffffffffffffffffffffff021916908373ffffffffffffffffffffffffffffffffffffffff160217905550808273ffffffffffffffffffffffffffffffffffffffff16600073ffffffffffffffffffffffffffffffffffffffff167fddf252ad1be2c89b69c2b068fc378daa952ba7f163c4a11628f55a4df523b3ef60405160405180910390a45050565b8280546123be90613947565b90600052602060002090601f0160209004810192826123e05760008555612427565b82601f106123f957805160ff1916838001178555612427565b82800160010185558215612427579182015b8281111561242657825182559160200191906001019061240b565b5b5090506124349190612438565b5090565b5b80821115612451576000816000905550600101612439565b5090565b6000612468612463846136f4565b6136c3565b90508281526020810184848401111561248057600080fd5b61248b848285613905565b509392505050565b6000813590506124a281613ac0565b92915050565b6000813590506124b781613ad7565b92915050565b6000813590506124cc81613aee565b92915050565b6000815190506124e181613aee565b92915050565b600082601f8301126124f857600080fd5b8135612508848260208601612455565b91505092915050565b60008135905061252081613b05565b92915050565b60006020828403121561253857600080fd5b600061254684828501612493565b91505092915050565b6000806040838503121561256257600080fd5b600061257085828601612493565b925050602061258185828601612493565b9150509250929050565b6000806000606084860312156125a057600080fd5b60006125ae86828701612493565b93505060206125bf86828701612493565b92505060406125d086828701612511565b9150509250925092565b600080600080608085870312156125f057600080fd5b60006125fe87828801612493565b945050602061260f87828801612493565b935050604061262087828801612511565b925050606085013567ffffffffffffffff81111561263d57600080fd5b612649878288016124e7565b91505092959194509250565b6000806040838503121561266857600080fd5b600061267685828601612493565b9250506020612687858286016124a8565b9150509250929050565b600080604083850312156126a457600080fd5b60006126b285828601612493565b92505060206126c385828601612511565b9150509250929050565b6000602082840312156126df57600080fd5b60006126ed848285016124bd565b91505092915050565b60006020828403121561270857600080fd5b6000612716848285016124d2565b91505092915050565b60006020828403121561273157600080fd5b600061273f84828501612511565b91505092915050565b61275181613891565b82525050565b612760816138a3565b82525050565b600061277182613739565b61277b818561374f565b935061278b818560208601613914565b61279481613aaf565b840191505092915050565b60006127aa82613744565b6127b48185613760565b93506127c4818560208601613914565b6127cd81613aaf565b840191505092915050565b60006127e382613744565b6127ed8185613771565b93506127fd818560208601613914565b80840191505092915050565b6000815461281681613947565b6128208186613771565b9450600182166000811461283b576001811461284c5761287f565b60ff1983168652818601935061287f565b61285585613724565b60005b8381101561287757815481890152600182019150602081019050612858565b838801955050505b50505092915050565b6000612895602583613771565b91507f68747470733a2f2f6e6674707265766965772e30786465762e636f6465732f3f60008301527f636f64653d0000000000000000000000000000000000000000000000000000006020830152602582019050919050565b60006128fb603283613760565b91507f4552433732313a207472616e7366657220746f206e6f6e20455243373231526560008301527f63656976657220696d706c656d656e74657200000000000000000000000000006020830152604082019050919050565b6000612961601c83613760565b91507f4552433732313a20746f6b656e20616c7265616479206d696e746564000000006000830152602082019050919050565b60006129a1600a83613771565b91507f54484952445f574f5244000000000000000000000000000000000000000000006000830152600a82019050919050565b60006129e1602483613760565b91507f4552433732313a207472616e7366657220746f20746865207a65726f2061646460008301527f72657373000000000000000000000000000000000000000000000000000000006020830152604082019050919050565b6000612a47601983613760565b91507f4552433732313a20617070726f766520746f2063616c6c6572000000000000006000830152602082019050919050565b6000612a87600b83613771565b91507f5345434f4e445f574f52440000000000000000000000000000000000000000006000830152600b82019050919050565b6000612ac7602c83613760565b91507f4552433732313a206f70657261746f7220717565727920666f72206e6f6e657860008301527f697374656e7420746f6b656e00000000000000000000000000000000000000006020830152604082019050919050565b6000612b2d605383613771565b91507f222c20226465736372697074696f6e223a2022416e6f6e2075736572206e616d60008301527f657320666f722066726f6773222c2022696d616765223a2022646174613a696d60208301527f6167652f7376672b786d6c3b6261736536342c000000000000000000000000006040830152605382019050919050565b6000612bb9600d83613771565b91507f3c2f746578743e3c2f7376673e000000000000000000000000000000000000006000830152600d82019050919050565b6000612bf9603883613760565b91507f4552433732313a20617070726f76652063616c6c6572206973206e6f74206f7760008301527f6e6572206e6f7220617070726f76656420666f7220616c6c00000000000000006020830152604082019050919050565b6000612c5f602a83613760565b91507f4552433732313a2062616c616e636520717565727920666f7220746865207a6560008301527f726f2061646472657373000000000000000000000000000000000000000000006020830152604082019050919050565b6000612cc5602983613760565b91507f4552433732313a206f776e657220717565727920666f72206e6f6e657869737460008301527f656e7420746f6b656e00000000000000000000000000000000000000000000006020830152604082019050919050565b6000612d2b602e83613760565b91507f45524337323155524953746f726167653a2055524920736574206f66206e6f6e60008301527f6578697374656e7420746f6b656e0000000000000000000000000000000000006020830152604082019050919050565b6000612d91600283613771565b91507f227d0000000000000000000000000000000000000000000000000000000000006000830152600282019050919050565b6000612dd1602083613760565b91507f4552433732313a206d696e7420746f20746865207a65726f20616464726573736000830152602082019050919050565b6000612e11603183613760565b91507f45524337323155524953746f726167653a2055524920717565727920666f722060008301527f6e6f6e6578697374656e7420746f6b656e0000000000000000000000000000006020830152604082019050919050565b6000612e77602c83613760565b91507f4552433732313a20617070726f76656420717565727920666f72206e6f6e657860008301527f697374656e7420746f6b656e00000000000000000000000000000000000000006020830152604082019050919050565b6000612edd602983613760565b91507f4552433732313a207472616e73666572206f6620746f6b656e2074686174206960008301527f73206e6f74206f776e00000000000000000000000000000000000000000000006020830152604082019050919050565b6000612f43602f83613760565b91507f4552433732314d657461646174613a2055524920717565727920666f72206e6f60008301527f6e6578697374656e7420746f6b656e00000000000000000000000000000000006020830152604082019050919050565b6000612fa9600a83613771565b91507f7b226e616d65223a2022000000000000000000000000000000000000000000006000830152600a82019050919050565b6000612fe9602183613760565b91507f4552433732313a20617070726f76616c20746f2063757272656e74206f776e6560008301527f72000000000000000000000000000000000000000000000000000000000000006020830152604082019050919050565b600061304f600a83613771565b91507f46495253545f574f5244000000000000000000000000000000000000000000006000830152600a82019050919050565b600061308f601d83613771565b91507f646174613a6170706c69636174696f6e2f6a736f6e3b6261736536342c0000006000830152601d82019050919050565b60006130cf603183613760565b91507f4552433732313a207472616e736665722063616c6c6572206973206e6f74206f60008301527f776e6572206e6f7220617070726f7665640000000000000000000000000000006020830152604082019050919050565b6000613135600a83613771565b91507f4241434b47524f554e44000000000000000000000000000000000000000000006000830152600a82019050919050565b6000613175601b83613760565b91507f4d617820737570706c7920686173206265656e207265616368656400000000006000830152602082019050919050565b6131b1816138fb565b82525050565b60006131c382846127d8565b915081905092915050565b60006131da82856127d8565b91506131e682846127d8565b91508190509392505050565b60006131fe82866127d8565b915061320a82856127d8565b915061321682846127d8565b9150819050949350505050565b600061322f8287612809565b915061323b82866127d8565b91506132478285612809565b915061325382846127d8565b915061325e82612bac565b915081905095945050505050565b600061327782612888565b915061328382846127d8565b915081905092915050565b600061329982612994565b91506132a582846127d8565b915081905092915050565b60006132bb82612a7a565b91506132c782846127d8565b915081905092915050565b60006132dd82612f9c565b91506132e982856127d8565b91506132f482612b20565b915061330082846127d8565b915061330b82612d84565b91508190509392505050565b600061332282613042565b915061332e82846127d8565b915081905092915050565b600061334482613082565b915061335082846127d8565b915081905092915050565b600061336682613128565b915061337282846127d8565b915081905092915050565b60006020820190506133926000830184612748565b92915050565b60006080820190506133ad6000830187612748565b6133ba6020830186612748565b6133c760408301856131a8565b81810360608301526133d98184612766565b905095945050505050565b60006040820190506133f96000830185612748565b61340660208301846131a8565b9392505050565b60006020820190506134226000830184612757565b92915050565b60006020820190508181036000830152613442818461279f565b905092915050565b60006060820190508181036000830152613464818661279f565b905061347360208301856131a8565b6134806040830184612748565b949350505050565b600060208201905081810360008301526134a1816128ee565b9050919050565b600060208201905081810360008301526134c181612954565b9050919050565b600060208201905081810360008301526134e1816129d4565b9050919050565b6000602082019050818103600083015261350181612a3a565b9050919050565b6000602082019050818103600083015261352181612aba565b9050919050565b6000602082019050818103600083015261354181612bec565b9050919050565b6000602082019050818103600083015261356181612c52565b9050919050565b6000602082019050818103600083015261358181612cb8565b9050919050565b600060208201905081810360008301526135a181612d1e565b9050919050565b600060208201905081810360008301526135c181612dc4565b9050919050565b600060208201905081810360008301526135e181612e04565b9050919050565b6000602082019050818103600083015261360181612e6a565b9050919050565b6000602082019050818103600083015261362181612ed0565b9050919050565b6000602082019050818103600083015261364181612f36565b9050919050565b6000602082019050818103600083015261366181612fdc565b9050919050565b60006020820190508181036000830152613681816130c2565b9050919050565b600060208201905081810360008301526136a181613168565b9050919050565b60006020820190506136bd60008301846131a8565b92915050565b6000604051905081810181811067ffffffffffffffff821117156136ea576136e9613a80565b5b8060405250919050565b600067ffffffffffffffff82111561370f5761370e613a80565b5b601f19601f8301169050602081019050919050565b60008190508160005260206000209050919050565b600081519050919050565b600081519050919050565b600082825260208201905092915050565b600082825260208201905092915050565b600081905092915050565b6000613787826138fb565b9150613792836138fb565b9250827fffffffffffffffffffffffffffffffffffffffffffffffffffffffffffffffff038211156137c7576137c66139f3565b5b828201905092915050565b60006137dd826138fb565b91506137e8836138fb565b9250826137f8576137f7613a22565b5b828204905092915050565b600061380e826138fb565b9150613819836138fb565b9250817fffffffffffffffffffffffffffffffffffffffffffffffffffffffffffffffff0483118215151615613852576138516139f3565b5b828202905092915050565b6000613868826138fb565b9150613873836138fb565b925082821015613886576138856139f3565b5b828203905092915050565b600061389c826138db565b9050919050565b60008115159050919050565b60007fffffffff0000000000000000000000000000000000000000000000000000000082169050919050565b600073ffffffffffffffffffffffffffffffffffffffff82169050919050565b6000819050919050565b82818337600083830152505050565b60005b83811015613932578082015181840152602081019050613917565b83811115613941576000848401525b50505050565b6000600282049050600182168061395f57607f821691505b6020821081141561397357613972613a51565b5b50919050565b6000613984826138fb565b91507fffffffffffffffffffffffffffffffffffffffffffffffffffffffffffffffff8214156139b7576139b66139f3565b5b600182019050919050565b60006139cd826138fb565b91506139d8836138fb565b9250826139e8576139e7613a22565b5b828206905092915050565b7f4e487b7100000000000000000000000000000000000000000000000000000000600052601160045260246000fd5b7f4e487b7100000000000000000000000000000000000000000000000000000000600052601260045260246000fd5b7f4e487b7100000000000000000000000000000000000000000000000000000000600052602260045260246000fd5b7f4e487b7100000000000000000000000000000000000000000000000000000000600052604160045260246000fd5b6000601f19601f8301169050919050565b613ac981613891565b8114613ad457600080fd5b50565b613ae0816138a3565b8114613aeb57600080fd5b50565b613af7816138af565b8114613b0257600080fd5b50565b613b0e816138fb565b8114613b1957600080fd5b5056fe4142434445464748494a4b4c4d4e4f505152535455565758595a6162636465666768696a6b6c6d6e6f707172737475767778797a303132333435363738392b2f4e6577204e465420686173206265656e206d696e746564207769746820746865204944206f6620257320746f20746865206c75636b793a202573a264697066735822122029a78709513f71b59e8a3fa6756c5b599d0a2c28893e4dc90bb7424d6f408d9e64736f6c634300080000333c73766720786d6c6e733d27687474703a2f2f7777772e77332e6f72672f323030302f73766727207072657365727665417370656374526174696f3d27784d696e594d696e206d656574272076696577426f783d273020302033353020333530273e3c7374796c653e2e62617365207b2066696c6c3a2077686974653b20666f6e742d66616d696c793a2073657269663b20666f6e742d73697a653a20323470783b207d3c2f7374796c653e3c726563742077696474683d273130302527206865696768743d2731303025272066696c6c3d27272f3e3c7465787420783d273530252720793d273530252720636c6173733d27626173652720646f6d696e616e742d626173656c696e653d276d6964646c652720746578742d616e63686f723d276d6964646c65273e",
  "linkReferences": {},
  "deployedLinkReferences": {}
}